:100000000C9434000C9451000C9451000C94510049
:100010000C9451000C9451000C9451000C9451001C
:100020000C9451000C9451000C9451000C9451000C
:100030000C9451000C9451000C9451000C945100FC
:100040000C9451000C9451000C9451000C945100EC
:100050000C9451000C9451000C9451000C945100DC
:100060000C9451000C94510011241FBECFEFD8E026
:10007000DEBFCDBF11E0A0E0B1E0EAECF8E002C0E5
:1000800005900D92A234B107D9F721E0A2E4B1E0C6
:1000900001C01D92A835B207E1F70E94A0020C949E
:1000A00063040C940000EF92FF920F931F93CF9381
:1000B000DF938C01C0E0D0E0E62EF12C6C2F6C5F5A
:1000C000F8018081918197010C2E02C0359527950A
:1000D0000A94E2F720FF03C00E94230202C00E949C
:1000E0002E022196C430D10549F7DF91CF911F919F
:1000F0000F91FF90EF9008951F93CF93DF93EC0142
:10010000162F62956F700E94530062E0888199817A
:100110000E944602612FCE010E94530062E0888156
:100120009981DF91CF911F910C9446021F93CF9339
:10013000DF93EC01162F60E0888199810E942E02E6
:10014000612FCE01DF91CF911F910C947C00CF9253
:10015000DF92EF92FF920F931F93CF93DF9300D024
:10016000CDB7DEB78C016830E8F4660F660F660F16
:10017000606449835A830E9496004981C42E5A8143
:10018000D52E88E0F82EF601E1906F0160E0F801CD
:10019000808191810E9423026E2DC8010E947C0003
:1001A000FA9489F70F900F90DF91CF911F910F91E3
:1001B000FF90EF90DF90CF9008950F93011107C04B
:1001C000D9010D900020E9F711970A2F021B50E189
:1001D000659FF0011124E40FF11D3296402F50E08D
:1001E000B9018E0F9F1F0F910C945304FF920F9330
:1001F0001F93CF93DF93EC0160E80E94960000E02C
:1002000010E0FE01E00FF11FF28060E0888199812B
:100210000E9423026F2DCE010E947C000F5F1F4FB2
:100220000031110571F760ECCE010E94960000E0EC
:1002300010E0FE01E00FF11FF28860E088819981F3
:100240000E9423026F2DCE010E947C000F5F1F4F82
:100250000031110571F7DF91CF911F910F91FF9040
:100260000895CF93DF93EC0140E150E060E270E04D
:1002700002960E945C0440E150E060E270E0CE0132
:1002800042960E945C0461E0CE010E9496008FE9D4
:100290009FE00197F1F700C00000DF91CF91089532
:1002A0001F93CF93DF93182F82E290E00E942C03DC
:1002B000EC01812F0E94BD01FE018193919340E1E9
:1002C00050E060E270E0CF010E945C0440E150E049
:1002D00060E270E0CE0142960E945C0413E063E0AD
:1002E000CE010E94530062E0888199810E944602FB
:1002F0008FE097E20197F1F700C00000115079F705
:1003000062E0CE010E94530062E0888199810E94E0
:1003100046028FE99FE00197F1F700C0000068E214
:10032000CE010E94960068E0CE010E94960061E036
:10033000CE010E94960066E0CE010E9496006CE01D
:10034000CE010E949600CE01DF91CF911F910895BA
:100350000F931F93CF93DF938C01C82FD12F8991D7
:1003600099910E94C801CE010E94C403C801DF9187
:10037000CF911F910F910C94C403CF93C82F82E0AB
:1003800090E00E942C03FC01C0831182CF9108955C
:100390000C94C4030F931F93CF93DF931F92CDB799
:1003A000DEB78C010E947802F8018081880F81609D
:1003B0000E94880281E00E94920289830E9480024A
:1003C00089810F90DF91CF911F910F910895CF9365
:1003D000DF93EC0169830E9478028881880F0E9474
:1003E000880289810E948802DF91CF910C9480025B
:1003F000FC01618160950C94E701CF93DF93EC01E0
:100400006FEF0E94E7018FEC97E00197F1F700C0D2
:10041000000060E0CE01DF91CF910C94E701CF9313
:10042000DF931F92CDB7DEB769830E94CA0190E0C7
:10043000698102C0959587956A95E2F781700F9062
:10044000DF91CF91089521E030E001C0220F6A953D
:10045000EAF7FC016181622B0C94E70121E030E0B6
:1004600001C0220F6A95EAF7622F6095FC01218195
:1004700062230C94E70121E030E001C0220F6A956D
:10048000EAF7FC01618162270C94E7011F93CF9387
:10049000DF93EC01162F0E9423028FEC97E0019767
:1004A000F1F700C00000612FCE01DF91CF911F91C5
:1004B0000C942E0248EE53E09C01249FC001259F1E
:1004C000900D349F900D11249C0140E050E060E0BD
:1004D00072E18AE790E00E940A0320513109410944
:1004E000510956954795379527952093B80008955B
:1004F00084EA8093BC008091BC0087FFFCCF089504
:1005000084E98093BC008091BC0084FDFCCF0895F9
:100510008093BB0084E88093BC008091BC0087FF7F
:10052000FCCF0895882311F084EC01C084E8809307
:10053000BC008091BC0087FFFCCF8091BB00089578
:1005400084E690E00E945A028FE30E94500190934B
:100550004301809342014EE051E061E00E94A70018
:1005600046E051E062E080914201909143010E9497
:10057000A7000AE026E131E043E060E0809142011B
:10058000909143010E94DD0008E021E231E044E067
:1005900061E080914201909143010E94DD008091D1
:1005A0004201909143010E94F60081E084B9E091FC
:1005B0004201F091430163E0808191810E94230216
:1005C0002FEF82E597E0215080409040E1F700C096
:1005D00000000BE02AE231E043E060E0809142015C
:1005E000909143010E94DD000AE026E331E042E001
:1005F00061E080914201909143010E94DD00809171
:100600004201909143010E94F60085B191E0892753
:1006100085B9D6CFA1E21A2EAA1BBB1BFD010DC0C6
:10062000AA1FBB1FEE1FFF1FA217B307E407F507A2
:1006300020F0A21BB30BE40BF50B661F771F881F7E
:10064000991F1A9469F760957095809590959B0114
:10065000AC01BD01CF010895CF93DF9382309105A6
:1006600010F482E090E0E0915601F091570120E013
:1006700030E0A0E0B0E0309739F140815181481777
:100680005907B8F04817590771F482819381109780
:1006900029F013969C938E9312972CC09093570138
:1006A0008093560127C02115310531F042175307B9
:1006B00018F0A901DB0101C0EF019A01BD01DF01C2
:1006C0000280F381E02DD7CF21153105F9F0281BE9
:1006D000390B2430310580F48A819B8161157105C5
:1006E00021F0FB019383828304C090935701809390
:1006F0005601FE01329644C0FE01E20FF31F8193C2
:10070000919322503109398328833AC020915401B2
:1007100030915501232B41F42091020130910301C6
:100720003093550120935401209100013091010133
:100730002115310541F42DB73EB740910401509188
:100740000501241B350BE0915401F0915501E2178E
:10075000F307A0F42E1B3F0B2817390778F0AC01E4
:100760004E5F5F4F2417350748F04E0F5F1F5093C1
:100770005501409354018193919302C0E0E0F0E071
:10078000CF01DF91CF910895CF93DF93009709F4C4
:1007900087C0FC01329713821282C0915601D0911A
:1007A0005701209781F420813181280F391F8091D2
:1007B0005401909155018217930779F5F0935501F3
:1007C000E09354016DC0DE0120E030E0AE17BF07BA
:1007D00050F412964D915C9113979D01411551056E
:1007E00009F1DA01F3CFB383A28340815181840FF1
:1007F000951F8A179B0771F48D919C911197840F17
:10080000951F02969183808312968D919C911397E8
:10081000938382832115310529F4F0935701E093E6
:1008200056013EC0D9011396FC93EE9312974D9159
:100830005D91A40FB51FEA17FB0779F480819181C0
:10084000840F951F0296D90111969C938E938281F5
:10085000938113969C938E931297E0E0F0E08A8147
:100860009B81009719F0FE01EC01F9CFCE010296B1
:1008700028813981820F931F2091540130915501B5
:100880002817390769F4309729F41092570110920C
:10089000560102C013821282D0935501C0935401B5
:1008A000DF91CF910895FB01DC0102C001900D9210
:1008B00041505040D8F70895DC0101C06D9341507C
:0A08C0005040E0F70895F894FFCFD0
:1008CA00000058012000080C0A090A0C0800020658
:1008DA000A120A0602000120557074696D65200229
:1008EA00006279204C6963686F004A61207069650B
:1008FA0072646F6C6500647A69616C612120786446
:02090A000000EB
:00000001FF
