:100000000C9432000C944F000C944F000C944F0051
:100010000C944F000C944F000C944F000C944F0024
:100020000C944F000C944F000C944F000C94D10B87
:100030000C944F000C946A0C0C944F000C944F00DD
:100040000C944F000C944F000C944F000C944F00F4
:100050000C944F000A74657374330A000A74657354
:1000600074320A0011241FBECFE5D8E0DEBFCDBF39
:1000700012E0A0E6B0E0E0EFF4E302C005900D92DC
:10008000A83EB107D9F723E0A8EEB2E001C01D9267
:10009000A733B207E1F70E94140E0C94761A0C9461
:1000A00000003E9A87EC86B9089597B1987F982B07
:1000B00097B987EC86B93699FECF84B195B108958A
:1000C000EF92FF920F931F93CF93DF938C01C0E0C9
:1000D000D0E0E62EF12C6C2F6C5FF80180819181CD
:1000E00097010C2E02C0359527950A94E2F720FF60
:1000F00003C00E94300202C00E943B022196C4301D
:10010000D10549F7DF91CF911F910F91FF90EF90AB
:1001100008951F93CF93DF93EC01162F62956F70B4
:100120000E94600062E0888199810E945302612FE1
:10013000CE010E94600062E088819981DF91CF91B9
:100140001F910C9453021F93CF93DF93EC01162F52
:1001500060E0888199810E943B02612FCE01DF918E
:10016000CF911F910C948900CF92DF92EF92FF9272
:100170000F931F93CF93DF9300D0CDB7DEB78C01E1
:100180006830E8F4660F660F660F606449835A832F
:100190000E94A3004981C42E5A81D52E88E0F82EF2
:1001A000F601E1906F0160E0F801808191810E9489
:1001B00030026E2DC8010E948900FA9489F70F90D1
:1001C0000F90DF91CF911F910F91FF90EF90DF90F3
:1001D000CF9008950F93011107C0D9010D90002011
:1001E000E9F711970A2F021B50E1659FF0011124D6
:1001F000E40FF11D3296402F50E0B9018E0F9F1F82
:100200000F910C949517FF920F931F93CF93DF9349
:10021000EC0160E80E94A30000E010E0FE01E00FA6
:10022000F11FF28060E0888199810E9430026F2D79
:10023000CE010E9489000F5F1F4F0031110571F739
:1002400060ECCE010E94A30000E010E0FE01E00F90
:10025000F11FF28860E0888199810E9430026F2D41
:10026000CE010E9489000F5F1F4F0031110571F709
:10027000DF91CF911F910F91FF900895CF93DF935E
:10028000EC0140E150E060E270E002960E949E17AF
:1002900040E150E060E270E0CE0142960E949E177D
:1002A00061E0CE010E94A3008FE99FE00197F1F782
:1002B00000C00000DF91CF9108951F93CF93DF938B
:1002C000182F82E290E00E946E16EC01812F0E94AE
:1002D000CA01FE018193919340E150E060E270E039
:1002E000CF010E949E1740E150E060E270E0CE0135
:1002F00042960E949E1713E063E0CE010E946000C8
:1003000062E0888199810E9453028FE097E2019711
:10031000F1F700C00000115079F762E0CE010E94B1
:10032000600062E0888199810E9453028FE99FE01A
:100330000197F1F700C0000068E2CE010E94A3001F
:1003400068E0CE010E94A30061E0CE010E94A300FC
:1003500066E0CE010E94A3006CE0CE010E94A300E3
:10036000CE01DF91CF911F9108950F931F93CF93EB
:10037000DF938C01C82FD12F899199910E94D501CB
:10038000CE010E940617C801DF91CF911F910F91F6
:100390000C940617CF93C82F82E090E00E946E164F
:1003A000FC01C0831182CF9108950C9406170F931E
:1003B0001F93CF93DF931F92CDB7DEB78C010E94BE
:1003C0002703F8018081880F81600E94330381E058
:1003D0000E943A0389830E942D0389810F90DF9147
:1003E000CF911F910F910895CF93DF93EC01698313
:1003F0000E9427038881880F0E94330389810E940D
:100400003303DF91CF910C942D03FC016181609542
:100410000C94F401CF93DF93EC016FEF0E94F40191
:100420008FEC97E00197F1F700C0000060E0CE018B
:10043000DF91CF910C94F401CF93DF931F92CDB74E
:10044000DEB769830E94D70190E0698102C095956B
:1004500087956A95E2F781700F90DF91CF910895AB
:1004600021E030E001C0220F6A95EAF7FC016181CA
:10047000622B0C94F40121E030E001C0220F6A9558
:10048000EAF7622F6095FC01218162230C94F4014C
:1004900021E030E001C0220F6A95EAF7FC0161819A
:1004A00062270C94F4011F93CF93DF93EC01162F76
:1004B0000E9430028FEC97E00197F1F700C0000036
:1004C000612FCE01DF91CF911F910C943B02282F19
:1004D000FC0180E09E2F921B961750F49191892782
:1004E00098E03CE8869508F483279A95D9F7F2CFEF
:1004F0000895AF92BF92CF92DF92EF92FF920F9347
:100500001F93CF93DF93CDB7DEB729970FB6F8943B
:10051000DEBF0FBECDBF6C018E010F5F1F4F7E018E
:100520008AE0E80EF11C5801C6010E949D12F801F4
:1005300081938F01EE15FF05B9F768E0C5010E94B0
:1005400067029985891307C08A8190E0982F8827D0
:100550002981822B02C080E090E529960FB6F8949D
:10056000DEBF0FBECDBFDF91CF911F910F91FF90E6
:10057000EF90DF90CF90BF90AF900895CF93DF932F
:10058000EC010E94B911882361F0CE010E94E212B1
:100590006EEBCE010E94E111CE01DF91CF910C9460
:1005A000790280E098EADF91CF9108950F931F932D
:1005B000CF93DF9300D0CDB7DEB78C0169837A8308
:1005C0000E94B91169817A81882381F0C8010E9453
:1005D000BC126EEBC8010E94E111C8010F900F9090
:1005E000DF91CF911F910F910C94790280E098EAEE
:1005F0000F900F90DF91CF911F910F910895CF939E
:10060000DF93EC010E94E21264E4CE01DF91CF910E
:100610000C94E11148EE53E09C01249FC001259FFA
:10062000900D349F900D11249C0140E050E060E05B
:1006300072E18AE790E00E941015205131094109CA
:100640005109569547953795279520B9089584EA1D
:1006500086BF06B607FEFDCF089584E986BF06B6BD
:1006600004FCFDCF089583B984E886BF06B607FE73
:10067000FDCF0895882311F084EC01C084E886BF83
:1006800006B607FEFDCF83B108950F93CF93DF9396
:10069000EC0108E022E831E040E061E00E94EA007D
:1006A000B4992DC02FE788E391E02150804090401D
:1006B000E1F700C00000B49BFECF2FE788E391E094
:1006C000215080409040E1F700C00000209166007A
:1006D000309167002F5F3F4F309367002093660093
:1006E0002530310534F081E090E0909367008093ED
:1006F0006600CE01DF91CF910F910C943E0182995B
:1007000024C02FE788E391E0215080409040E1F73A
:1007100000C00000829BFECF2FE788E391E02150CC
:1007200080409040E1F700C00000209166003091C9
:10073000670021503109309367002093660012163C
:100740001306BCF284E090E0D0CFB2991FC02FE72F
:1007500088E391E0215080409040E1F700C0000024
:10076000B29BFECF2FE788E391E02150804090407C
:10077000E1F700C0000020916600309167004AE078
:10078000429FC001439F900D1124AFCFDF91CF91C5
:100790000F9108950F93CF93DF93EC010FE02BE8B7
:1007A00031E040E061E00E94EA00B29923C02FE707
:1007B00088E391E0215080409040E1F700C00000C4
:1007C000B29BFECF2FE788E391E02150804090401C
:1007D000E1F700C0000020916600309167004AE018
:1007E000429FC001439F900D112490936700809316
:1007F000660022C0B39926C02FE788E391E021501C
:1008000080409040E1F700C00000B39BFECF2FE78F
:1008100088E391E0215080409040E1F700C0000063
:1008200080916600909167006AE070E00E94FC147D
:100830007093670060936600CE01DF91CF910F91B6
:100840000C943E01DF91CF910F9108950F93CF93B8
:10085000DF93EC010FE02BE931E040E061E00E9422
:10086000EA00B39926C02FE788E391E02150804049
:100870009040E1F700C00000B39BFECF2FE788E374
:1008800091E0215080409040E1F700C0000080914D
:100890006600909167006AE070E00E94FC1470931B
:1008A000670060936600CE01DF91CF910F910C94A9
:1008B0003E01DF91CF910F9108950F931F93CF9336
:1008C000DF93EC0160916600709167006F317105F4
:1008D00009F430C36CF56A30710509F45CC0CCF4DE
:1008E0006230710509F40CC244F46130710509F0FD
:1008F00098C60BE02BEA31E006C26330710509F4BB
:1009000093C26430710509F08CC604E025E532E03D
:10091000FAC16C30710509F41EC10CF4BBC064311E
:10092000710509F4FFC16E31710509F481C279C600
:10093000603921E0720709F457C49CF469327105EB
:1009400009F4E5C32CF46832710509F46FC369C674
:100950006436710509F477C1683C710509F415C264
:1009600060C66C3B92E0790709F437C554F4643FE4
:10097000F1E07F0709F48BC46835724009F4DAC4EA
:1009800050C6603283E0780709F47AC56438734052
:1009900009F4C9C546C680910B0390910C032091C0
:1009A0000B0330910C0364E670E00E94FC1497FF87
:1009B00003C09195819591099F938F93C90164E636
:1009C00070E00E94FC147F936F9387EB91E09F93FC
:1009D0008F930DE013E01F930F930E94A517F8016A
:1009E00001900020E9F78F01015011090D501340CB
:1009F0002DE033E040E060E0CE010E94EA00CE014D
:100A00000E94CA03CE010E9403018FE39CE9019773
:100A1000F1F700C00000EDB7FEB738960FB6F894B6
:100A2000FEBF0FBEEDBFB49927C0FFE728E381E00A
:100A3000F15020408040E1F700C00000B49BFECFA1
:100A40009FE7E8E3F1E09150E040F040E1F700C0BB
:100A50000000809166009091670001969093670076
:100A6000809366000D970CF4D5C58AE090E09093D2
:100A7000670080936600CEC58299D3C52FE788E3CF
:100A800091E0215080409040E1F700C00000829B3F
:100A9000FECFC1C0E0911C03F0911D03CF0164E6BD
:100AA00070E00E94FC1497FF03C091958195910915
:100AB0009F938F93CF0164E670E00E94FC147F93B4
:100AC0006F9389EC91E09F938F930DE013E01F9358
:100AD0000F930E94A517F80101900020E9F78F01FC
:100AE000015011090D5013402DE033E040E060E06B
:100AF000CE010E94EA00CE010E94CA03CE010E94EC
:100B000003018FE39CE90197F1F700C00000EDB706
:100B1000FEB738960FB6F894FEBF0FBEEDBFB4997E
:100B20000CC0FFE728E381E0F15020408040E1F76E
:100B300000C00000B49BFECF83CF829972C52FE71F
:100B400088E391E0215080409040E1F700C0000030
:100B5000829BFECF60C0E0912C03F0912D03CF016A
:100B600064E670E00E94FC1497FF03C091958195A4
:100B700091099F938F93CF0164E670E00E94FC146B
:100B80007F936F938DED91E09F938F930DE013E032
:100B90001F930F930E94A517F80101900020E9F719
:100BA0008F01015011090D5013402DE033E040E05A
:100BB00060E0CE010E94EA00CE010E94CA03CE018D
:100BC0000E9403018FE39CE90197F1F700C0000048
:100BD000EDB7FEB738960FB6F894FEBF0FBEEDBF67
:100BE000B4990CC0FFE728E381E0F1502040804039
:100BF000E1F700C00000B49BFECF22CF829911C55F
:100C00002FE788E391E0215080409040E1F700C059
:100C10000000829BFECFEFE7F8E321E0E150F040D7
:100C20002040E1F700C000008091660090916700CD
:100C3000019790936700809366000A970CF0EAC4CE
:100C40008CE090E014CF80916E0090916F00209125
:100C50006E0030916F000E94FC1497FF03C09195C5
:100C6000819591099F938F93C90164E670E00E947A
:100C7000FC147F936F9381EF91E09F938F930DE02E
:100C800013E01F930F930E94A517F8010190002015
:100C9000E9F78F01015011090D5013402DE033E0A9
:100CA00040E060E0CE010E94EA00CE010E942604EE
:100CB000CE010E9403018FE39CE90197F1F700C088
:100CC0000000EDB7FEB738960FB6F894FEBF0FBE22
:100CD000EDBFB49909C080916E0090916F00C296EB
:100CE00090936F0080936E0082999BC480916E00F8
:100CF00090916F00C29790936F0080936E0091C4A3
:100D00000AE022E032E040E060E0CE010E94EA002A
:100D1000CE010E944503CE01DF91CF911F910F912B
:100D20000C94030180912003909121039F938F9352
:100D30008DE092E09F938F930DE013E01F930F934C
:100D40000E94A517F80101900020E9F78F010150DA
:100D500011090D5013402DE033E040E060E0CE017A
:100D60000E94EA00CE010E94CA03CE010E94030144
:100D70008FE39CE90197F1F700C000000F900F90FE
:100D80000F900F900F900F904CC480916C00909139
:100D90006D0064E670E00E94FC147F936F938CE119
:100DA00092E09F938F930DE013E01F930F930E94A7
:100DB000A517F80101900020E9F78F0101501109F2
:100DC0000D5013402DE033E040E060E0CE010E9482
:100DD000EA00CE010E942604CE010E9403018FE3A7
:100DE0009CE90197F1F700C000000F900F900F9061
:100DF0000F900F900F90B4990AC080916C00909161
:100E00006D008C599F4F90936D0080936C00829978
:100E100008C480916C0090916D0084569109909364
:100E20006D0080936C00FDC30AE02AE232E06BCFD4
:100E30008091290390912A039F938F9385E392E0F9
:100E40009F938F930DE013E01F930F930E94A517BC
:100E5000F80101900020E9F78F01015011090D50B0
:100E600013402DE033E040E060E0CE010E94EA0054
:100E7000CE010E94CA03CE010E9403010F900F9081
:100E80000F900F900F900F90B49929C0FFE728E3BF
:100E900081E0F15020408040E1F700C00000B49BA9
:100EA000FECF9FE7E8E3F1E09150E040F040E1F74A
:100EB00000C00000809166009091670001969093B9
:100EC000670080936600809734F08EE190E0909305
:100ED000670080936600CE010E943E0124C0829983
:100EE00022C02FE788E391E0215080409040E1F755
:100EF00000C00000829BFECFEFE7F8E321E0E15065
:100F0000F0402040E1F700C0000080916600909121
:100F10006700019790936700809366004E97DCF618
:100F20008FE190E0D4CF8FE39CE90197F1F700C007
:100F3000000077C3809108038F93809107038F93FC
:100F400084E492E09F938F930DE013E01F930F933F
:100F50000E94A517F80101900020E9F78F010150C8
:100F600011090D5013402DE033E040E060E0CE0168
:100F70000E94EA00CE010E94CA03CE010E94030132
:100F80008FE39CE90197F1F700C000000F900F90EC
:100F90000F900F900F900F90B49923C09FE7E8E354
:100FA000F1E09150E040F040E1F700C00000B49B58
:100FB000FECF2FE788E391E0215080409040E1F799
:100FC00000C00000809166009091670001969093A8
:100FD00067008093660080970CF41CC38EE190E05C
:100FE00046CD82991EC3EFE7F8E321E0E150F040DF
:100FF0002040E1F700C00000829BFECF8FE798E31E
:10100000E1E081509040E040E1F700C000008091B5
:101010006600909167000197909367008093660047
:101020004E970CF0FEC28FE190E06CC080912603D9
:101030001F928F93809127031F928F938091280393
:101040001F928F938AE592E09F938F930DE013E0B8
:101050001F930F930E94A517F80101900020E9F754
:101060008F01015011090D5013402DE033E040E095
:1010700060E0CE010E94EA00CE010E94CA03CE01C8
:101080000E9403018FE39CE90197F1F700C0000083
:10109000EDB7FEB73A960FB6F894FEBF0FBEEDBFA0
:1010A000B4990CC0FFE728E381E0F1502040804074
:1010B000E1F700C00000B49BFECF70C08299B1C2BE
:1010C0002FE788E391E0215080409040E1F700C095
:1010D0000000829BFECFEFE7F8E321E0E150F04013
:1010E0002040E1F700C00000809166009091670009
:1010F0000197909367008093660088970CF091C2E7
:1011000089E290E090936700809366008AC28091A4
:101110002B031F928F93809123031F928F938091B3
:101120002E031F928F938BE692E09F938F930DE097
:1011300013E01F930F930E94A517F8010190002060
:10114000E9F78F01015011090D5013402DE033E0F4
:1011500040E060E0CE010E94EA00CE010E94CA0396
:10116000CE010E9403018FE39CE90197F1F700C0D3
:101170000000EDB7FEB73A960FB6F894FEBF0FBE6B
:10118000EDBFB49923C0FFE728E381E0F150204090
:101190008040E1F700C00000B49BFECF9FE7E8E38A
:1011A000F1E09150E040F040E1F700C00000809194
:1011B00066009091670001969093670080936600A7
:1011C0008A970CF427C288E290E051CC829929C218
:1011D0002FE788E391E0215080409040E1F700C084
:1011E0000000829BFECF77CF809126031F928F93C2
:1011F0008CE792E09F938F930DE013E01F930F9382
:101200000E94A517F80101900020E9F78F01015015
:1012100011090D5013402DE033E040E060E0CE01B5
:101220000E94EA000FE02BE931E040E061E0CE01EE
:101230000E94EA00CE010E9403018FE39CE901971E
:10124000F1F700C000000F900F900F900F900F90DB
:101250000F90B49905C0809126038F5F8093260379
:10126000829905C080912603815080932603B29B0A
:101270009FC1B399D6C1FFE728E381E0F150204038
:101280008040E1F700C00000B39BFECFAEC180916B
:1012900027031F928F9388E892E09F938F930DE02E
:1012A00013E01F930F930E94A517F80101900020EF
:1012B000E9F78F01015011090D5013402DE033E083
:1012C00040E060E0CE010E94EA000FE02BE931E04F
:1012D00040E061E0CE010E94EA00CE010E940301DD
:1012E0008FE39CE90197F1F700C000000F900F9089
:1012F0000F900F900F900F90B49905C08091270325
:101300008F5F80932703829905C0809127038150C6
:1013100080932703B29B4CC1B39983C1FFE728E3B5
:1013200081E0F15020408040E1F700C00000B39B15
:10133000FECF5BC1809128031F928F9383E992E0D7
:101340009F938F930DE013E01F930F930E94A517B7
:10135000F80101900020E9F78F01015011090D50AB
:1013600013402DE033E040E060E0CE010E94EA004F
:101370000FE02BE931E040E061E0CE010E94EA009D
:10138000CE010E9403018FE39CE90197F1F700C0B1
:1013900000000F900F900F900F900F900F90B49946
:1013A00004C0809128038F5F05C0829906C0809198
:1013B000280381508093280334C1B29BF9C0B399AC
:1013C00030C1FFE728E381E0F15020408040E1F7A1
:1013D00000C00000B39BFECF08C180912E031F9276
:1013E0008F938FE992E09F938F930DE013E01F930B
:1013F0000F930E94A517F80101900020E9F78F01D3
:10140000015011090D5013402DE033E040E060E041
:10141000CE010E94EA000FE02BE931E040E061E0FC
:10142000CE010E94EA00CE010E9403018FE39CE9F5
:101430000197F1F700C000000F900F900F900F90F0
:101440000F900F90B49904C080912E038F5F05C058
:10145000829906C080912E03815080932E03E1C0B3
:10146000B29BA6C0B399DDC0FFE728E381E0F1504D
:1014700020408040E1F700C00000B39BFECFB5C024
:10148000809123031F928F9389EA92E09F938F9319
:101490000DE013E01F930F930E94A517F801019030
:1014A0000020E9F78F01015011090D5013402DE084
:1014B00033E040E060E0CE010E94EA000FE02BE95B
:1014C00031E040E061E0CE010E94EA00CE010E94DE
:1014D00003018FE39CE90197F1F700C000000F9032
:1014E0000F900F900F900F900F90B49904C08091BF
:1014F00023038F5F05C0829906C08091230381502A
:10150000809323038EC0B29B53C0B3998AC0FFE778
:1015100028E381E0F15020408040E1F700C0000066
:10152000B39BFECF62C080912B031F928F9385EBFC
:1015300092E09F938F930DE013E01F930F930E940F
:10154000A517F80101900020E9F78F01015011095A
:101550000D5013402DE033E040E060E0CE010E94EA
:10156000EA000FE02BE931E040E061E0CE010E94AB
:10157000EA00CE010E9403018FE39CE90197F1F795
:1015800000C000000F900F900F900F900F900F90E1
:10159000B49904C080912B038F5F05C0829906C067
:1015A00080912B03815080932B033BC0B29910C0D4
:1015B00080916600909167008C599F4F90936700CF
:1015C00080936600883E934029F580E991E04FCAF8
:1015D000B39927C0FFE728E381E0F1502040804025
:1015E000E1F700C00000B39BFECF9FE7E8E3F1E026
:1015F0009150E040F040E1F700C0000080916600AB
:10160000909167006AE070E00E94FC14709367009C
:1016100060936600CE01DF91CF911F910F910C94E2
:101620003E01DF91CF911F910F9108956AE00E94D2
:10163000DC1420E1829F900D1124892F0895982FAA
:1016400092959F708F702AE0929F800D11240895CB
:10165000CF92EF920F931F93CF93DF9300D01F92FF
:10166000CDB7DEB7182F2B834A8369830E942703E7
:1016700080ED0E94330380E00E943303812F0E949B
:10168000160B0E9433036981862F0E94160B0E945D
:1016900033034A81842F0E94160B0E9433032B814F
:1016A000822F0E94160B0E943303802F0E94160B7C
:1016B0000E9433038E2D0E94160B0E9433038C2D43
:1016C0000E94160B0E9433030F900F900F90DF9132
:1016D000CF911F910F91EF90CF900C942D036F92AB
:1016E0007F928F929F92AF92BF92CF92DF92EF92B2
:1016F000FF920F931F93CF93DF93EC014B015A019D
:1017000039010E94270380ED0E94330380E00E948C
:1017100033030E942D030E94270381ED0E943303AF
:1017200081E00E943A038F770E941F0B888381E03B
:101730000E943A030E941F0BF401808381E00E9403
:101740003A038F730E941F0BF501808381E00E9492
:101750003A030E941F0BF301808381E00E943A0349
:101760000E941F0BF801808381E00E943A030E94CF
:101770001F0BF701808381E00E943A030E941F0B38
:10178000F6018083DF91CF911F910F91FF90EF9031
:10179000DF90CF90BF90AF909F908F907F906F9091
:1017A00008951F920F920FB60F9211242F933F931B
:1017B0004F935F936F937F938F939F93AF93BF9359
:1017C000EF93FF9380910B0390910C0320916E0097
:1017D00030916F00821B930B9093FC028093FB026D
:1017E0004091FB025091FC02209168003091690009
:1017F000429FC001439F900D529F900D11249093E2
:10180000FC028093FB022091FB023091FC0280914C
:10181000FD029091FE02EFEFF0E0BF010E94FC1488
:10182000260F371F3093300320932F0380912F030F
:101830009091300397FF05C01092300310922F0350
:1018400021C080912F03909130038F3F910531F09B
:101850002CF0F0933003E0932F0314C02091FD028D
:101860003091FE028091FB029091FC0260916A002F
:1018700070916B000E94FC14260F371F3093FE02FC
:101880002093FD028091FD029091FE0280912F0332
:10189000909130039BBD8ABD20916E0030916F0006
:1018A00080910B0390910C038217930714F41BBCD7
:1018B0001ABCFF91EF91BF91AF919F918F917F9152
:1018C0006F915F914F913F912F910F900FBE0F90AD
:1018D0001F9018951F920F920FB60F9211248F939D
:1018E0009F938CB18093E802803239F481E090E0DC
:1018F0009093040380930303C0C0813229F41092B3
:10190000040310920303B9C0823231F480916E0057
:1019100090916F00019607C0833251F480916E0060
:1019200090916F00019790936F0080936E00A5C017
:10193000843239F480916E0090916F008C509E4FEC
:10194000F2CF853239F480916E0090916F00845F00
:101950009140E9CF863231F480916C0090916D0016
:10196000019607C0873251F480916C0090916D0010
:10197000019790936D0080936C007FC0883231F4A2
:101980008091680090916900019607C0893251F4F6
:10199000809168009091690001979093690080930D
:1019A00068006BC0803331F480916A0090916B00C5
:1019B000019607C0813351F480916A0090916B00C9
:1019C000019790936B0080936A0057C0803439F47C
:1019D00081E090E090930203809301034EC0813434
:1019E00029F4109202031092010347C0813739F4A1
:1019F00081E090E09093F6028093F5023EC0873735
:101A000039F481E090E09093F2028093F10235C0C6
:101A1000853639F481E090E09093F8028093F702E4
:101A20002CC0823739F481E090E09093F0028093EB
:101A3000EF0223C0843739F481E090E09093F40200
:101A40008093F3021AC0893739F481E090E09093D3
:101A5000EE028093ED0211C0853739F481E090E009
:101A60009093EC028093EB0208C0893631F481E058
:101A700090E09093EA028093E9029F918F910F90FA
:101A80000FBE0F901F901895B89AD09A8F9A8A9887
:101A9000929ABA98C29ABC98C49ABB98C39ABA98B8
:101AA000C29A8AB380638ABB84B3806384BB08957F
:101AB0000E94270380ED0E9433038EE00E943303CF
:101AC00080E20E94330388E00E9433030E942D03CA
:101AD00084E690E00C940A038D9A8C9A8FB5806A04
:101AE0008FBD8FB581608FBD8EB588608EBD8EB580
:101AF00085608EBD8F9A83B7816083BF83B7846012
:101B000083BF89B7816089BF89B7806489BF83B784
:101B100083BF83B783BF0895809170019091710155
:101B20000197E9F580E890E0DC9ADD98AC9AAD98F1
:101B3000EFE0F7E23197F1F700C00000DD9ADC98A2
:101B4000AC9AAD98EFE0F7E23197F1F700C00000F2
:101B5000DD9ADC98AD9AAC98EFE0F7E23197F1F7B7
:101B600000C00000DC9ADD98AD9AAC98EFE0F7E297
:101B70003197F1F700C0000001970097A9F68FE3B5
:101B80009CE90197F1F700C0000081E090E090939C
:101B90000803809307031092710110927001089559
:101BA00080910703909108030197E9F580E890E0A0
:101BB000DC9ADD98AD9AAC98EFE0F7E23197F1F757
:101BC00000C00000DD9ADC98AD9AAC98EFE0F7E237
:101BD0003197F1F700C00000DD9ADC98AC9AAD981F
:101BE000EFE0F7E23197F1F700C00000DC9ADD98F2
:101BF000AC9AAD98EFE0F7E23197F1F700C0000042
:101C000001970097A9F68FE39CE90197F1F700C0CF
:101C1000000081E090E09093710180937001109238
:101C20000803109207030895CF93DF93CDB7DEB773
:101C3000C256D1090FB6F894DEBF0FBECDBF88E003
:101C4000E2E7F1E0DE01AD5ABF4F01900D928A95B7
:101C5000E1F788E0EAE7F1E0DE01A55BBF4F019024
:101C60000D928A95E1F70E948A130E94440D0E940A
:101C70006C0D0E9451000E94580D78948FE30E94D1
:101C80005D013C01AE014D5A5F4F61E00E94B4001E
:101C9000AE01455B5F4F62E0C3010E94B40063E0A8
:101CA000F301808191810E94300209E02DEB32E046
:101CB00043E060E0C3010E94EA000FE027EC32E05D
:101CC00040E061E0C3010E94EA00C3010E940301F9
:101CD000FFEF2DE339E4F15020403040E1F700C040
:101CE0000000C3010E943E01CE0103966D969FAF96
:101CF0008EAF6D97F8EE8F2EF3E09F2EA12CB12CB6
:101D0000FE01ED5BFF4F6F96FFAFEEAF6F979E0149
:101D1000255C3F4FA1963FAF2EAFA197C096A396EB
:101D20009FAF8EAFA39780EE92E00E94B9118823F7
:101D3000D1F380EE92E00E94FF029FEFE2E5F7E030
:101D40009150E040F040E1F700C000008FEF898340
:101D50001A8288E06D96EEADFFAD6D9711928A956F
:101D6000E9F7BE016F5F7F4F80EE92E00E94E512BF
:101D7000882309F441C0CE0101960E94EF12882306
:101D800081F3BE016D5F7F4F80EE92E00E94D6022C
:101D9000BC018115F0E59F0721F390932503809303
:101DA00024038C818C3899F4882777FD8095982FAF
:101DB0000E947F1520E030E048EC50E40E94E315DB
:101DC0000E944C1570931D0360931C03CACF81328F
:101DD00041F6882777FD8095982F0E947F1520E097
:101DE00030E048EC50E40E94E3150E944C157093DB
:101DF0002D0360932C03B5CF20911C0330911D035C
:101E0000A901485C510980912C0390912D034D3C10
:101E1000504178F4AC01485C51094D3C504128F0E8
:101E200030930C0320930B0308C0820F931F9595EA
:101E3000879590930C0380930B0380E00E945500DC
:101E40007C0181E00E9455008C0182E00E945500D7
:101E50009701A8E8B3E10E9432159B01AC016AE04A
:101E600056954795379527956A95D1F7AEE1B0E03D
:101E70000E94411568597A4381099109A50194018D
:101E80000E94101569017A019801A8E8B3E10E9447
:101E900032159B01AC017AE0569547953795279509
:101EA0007A95D1F7AEE1B0E00E94411568597A43C6
:101EB00081099109A50194010E941015F5E6CF163C
:101EC000D104E104F10428F030932103209320038E
:101ED00011C0253631054105510540F4C20ED31E0F
:101EE000E41EF51EF694E794D794C794D09221038C
:101EF000C09220032AB53BB544E6429FC001439FF0
:101F0000900D11246FEF70E00E94E81470932A0383
:101F100060932903C3010E945D049BE2C92E93E0F4
:101F2000D92E23E2E22E23E0F22E0EE213E022E28B
:101F300033E048E253E067E273E086E293E00E9418
:101F40006F0B8091010390910203019769F48091D6
:101F5000030390910403019759F08091030390913A
:101F60000403892B41F406C0809126038E3110F4BE
:101F7000979A01C0979880916C0090916D0004E64B
:101F800010E0B8010E94FC147F936F938EE392E0FF
:101F90009F938F936F962FAD6F972F936E963FAD54
:101FA0006E973F930E94A51780916E0090916F00ED
:101FB00020916E0030916F00B8010E94FC1497FFD1
:101FC00003C09195819591099F938F9304E610E04A
:101FD000C901B8010E94FC147F936F9388ED92E0D1
:101FE0009F938F93A1966FADA1976F93A0968FAD9E
:101FF000A0978F930E94A5178091290390912A039F
:102000009F938F938EE392E09F938F93A3969FADC0
:10201000A3979F93A296EFADA297EF930E94A51767
:1020200080910B0390910C0320910B0330910C03D2
:10203000B8010E94FC1497FF03C091958195910906
:102040009F938F93C90164E670E00E94FC147F9314
:102050006F9388ED92E09F938F932E01FBE24F0EDA
:10206000511C5F924F920E94A5178091200390917E
:1020700021039F938F938EE392E09F938F936E0142
:1020800023E2C20ED11CDF92CF920E94A5170FB699
:10209000F894DEBF0FBECDBF809108038F9380916F
:1020A00007038F9382E5282E82E0382E3F922F92ED
:1020B0007E019BE1E90EF11CFF92EF920E94A517B1
:1020C00080916800909169009F938F933F922F9227
:1020D0008E010D5E1F4F1F930F930E94A5178091D5
:1020E0006A0090916B009F938F933F922F921E01F5
:1020F000EBE02E0E311C3F922F920E94A51780918B
:10210000F1029091F2020FB6F894DEBF0FBECDBF80
:10211000892BD1F06F96EEADFFAD6F970190002047
:10212000E9F7BF01615071096F962EAD3FAD6F9712
:10213000621B730BCE018D5B9F4F0E94A114109206
:10214000F2021092F102B0C08091F3029091F40279
:10215000892BC9F0A196EEADFFADA19701900020AB
:10216000E9F7BF0161507109A1962EAD3FADA1976E
:10217000621B730BCE01CB960E94A1141092F40245
:102180001092F30291C08091EF029091F002892B9E
:10219000C9F0A396EEADFFADA39701900020E9F73B
:1021A000BF0161507109A3962EAD3FADA397621B8D
:1021B000730BCE01C3960E94A1141092F0021092EC
:1021C000EF0272C08091F5029091F602892B89F09E
:1021D000F20101900020E9F7BF0161507109641913
:1021E0007509C2010E94A1141092F6021092F50224
:1021F0005BC08091F7029091F802892B89F0F6017B
:1022000001900020E9F7BF01615071096C197D0947
:10221000C6010E94A1141092F8021092F70244C065
:102220008091ED029091EE02892B89F0F7010190E7
:102230000020E9F7BF01615071096E197F09C701DC
:102240000E94A1141092EE021092ED022DC0809116
:10225000EB029091EC02892B89F0F80101900020AB
:10226000E9F7BF0161507109601B710BC8010E9441
:10227000A1141092EC021092EB0216C08091E902B8
:102280009091EA02892B81F0F10101900020E9F799
:10229000BF016150710962197309C1010E94A11443
:1022A0001092EA021092E90280910B0390910C03C4
:1022B00020916E0030916F00821B930B8D32914004
:1022C00014F00E948C0D80916E0090916F0020910F
:1022D0000B0330910C03821B930B8D3291400CF455
:1022E00022CD0E94D00D1FCDCF93DF93EC010E9431
:1022F0003313CE010E94FC1282E08A95F1F700C0F0
:10230000CE010E9445138AE18A95F1F700C0CE0103
:102310000E947C13982F85E88A95F1F7000081E0F0
:10232000911101C080E0DF91CF910895CF93DF93A9
:10233000EC01662371F00E9433138DE08A95F1F76A
:102340000000CE010E940E1382E98A95F1F700C0C9
:102350000DC00E94331382E98A95F1F700C0CE01C7
:102360000E940E138DE08A95F1F70000DF91CF9166
:102370000895CF93DF93EC010E940E13CE010E94CB
:10238000FC12CE010E9433138FEB93E00197F1F71B
:1023900000C00000CE010E9445139AEB9A95F1F718
:1023A00000C0CE010E947C13982FE7E9F3E031973B
:1023B000F1F700C0000081E0911180E0DF91CF9142
:1023C00008950F931F93CF93DF93EC01062F0E9484
:1023D0000E13CE010E94FC1218E0602F6170CE0136
:1023E0000E94961106951150C1F7DF91CF911F9170
:1023F0000F9108954F925F927F928F929F92AF922A
:10240000BF92CF92DF92EF92FF920F931F93CF93E1
:10241000DF931F92CDB7DEB7F82E2B018A01FA01A8
:10242000D180DD2011F0D12C76C0CB010E94B911F2
:10243000C82E8823C1F36F2DC2010E94E111AA2486
:10244000AA94B12CEE24E394F12C9B2C95949594B2
:102450009594FB2DF7708F2EC2010E944513C20187
:102460000E947411782EC2010E947411880F87296E
:1024700031F0833008F04FC080FF15C025C0F8014F
:102480008081B81609F1B8166CF4E90DF11D97FCBE
:10249000FA956281A701082C01C0440F0A94EAF75B
:1024A000642399F4AB2CF801E90DF11D97FCFA9522
:1024B0009701082C01C0220F0A94EAF72095828127
:1024C0002823228360E00EC061E0F801E90DF11DD0
:1024D00097FCFA95862F01C0880F8A94EAF79281BB
:1024E000892B8283C20169830E940E13C2010E945C
:1024F000FC126981C2010E949611B394F0E4BF12EC
:10250000A4CF8FEFA81204C081E0F801818302C03C
:10251000F801A082DC2C8D2D0F90DF91CF911F91BF
:102520000F91FF90EF90DF90CF90BF90AF909F9072
:102530008F907F905F904F900895EF92FF920F934E
:102540001F93CF93DF938C010E944513C8E0D0E026
:10255000EE24E394F12CC8010E9474118111FE282D
:10256000EE0C21972097B9F78F2DDF91CF911F9116
:102570000F91FF90EF900895CF92DF92FF920F930B
:102580001F93CF93DF931F92CDB7DEB78C01F62E4A
:1025900065E579830E94E111CF2C7981D72E98E0EF
:1025A000F92EF60161916F01C8010E94E111FA94C0
:1025B000C1F70F90DF91CF911F910F91FF90DF90A6
:1025C000CF9008956CEC0C94E111AB01BC0180EF4D
:1025D0000C94FA11AB01BC018CEE0C94FA11CF9360
:1025E000FC01C18567E002960E94670291E0C81372
:1025F00090E0892FCF910895DC011496ED91FC9124
:102600001597408121E030E016960C9002C0220F11
:10261000331F0A94E2F7422B40830895DC01ED91C9
:10262000FC911197408121E030E016960C9002C099
:10263000220F331F0A94E2F7422B40830895DC01F6
:102640001496ED91FC911597408121E030E01696AB
:102650000C9002C0220F331F0A94E2F72095242326
:1026600020830C940E13DC01ED91FC9111974081B5
:1026700021E030E016960C9002C0220F331F0A941E
:10268000E2F72095242320830895DC011496ED9130
:10269000FC911597408121E030E016960C9002C025
:1026A000220F331F0A94E2F72095242320830C94F1
:1026B0003313DC01ED91FC911197408121E030E072
:1026C00016960C9002C0220F331F0A94E2F7422B99
:1026D00040830895DC01ED91FC911197408121E048
:1026E00030E016960C9002C0220F331F0A94E2F7D6
:1026F0002095242320830895FC01A281B3818C912D
:1027000021E030E0068002C0220F331F0A94E2F776
:10271000822308958AB188698AB910BC83E389B994
:1027200086E880BD88E98AB90895CF93C82F8A309A
:1027300019F48DE00E9495135D9BFECFCCB9CF912B
:102740000895CF93C82F82958F708A3010F4805DE2
:1027500001C0895A0E9495138C2F8F70282F30E06A
:102760002A30310514F4805D01C0895ACF910C9450
:102770009513CF93C82F892F0E94A1138C2FCF912F
:102780000C94A113CF92DF92EF92FF926B017C0128
:10279000C7010E94B913C601FF90EF90DF90CF9060
:1027A0000C94B913AF92BF92CF92DF92EF92FF9247
:1027B0000F931F93CF93DF931F92CDB7DEB77C01AA
:1027C00005E010E020E080E1A82E87E2B82E9AE034
:1027D000C92ED12CC701B5010E94E814611106C0B1
:1027E000211104C081E0A816B10439F480E3860FFA
:1027F00069830E94951321E069816A9DC0016B9DE8
:10280000900D1124E81AF90AC501B6010E94E814D6
:102810005B010150110901151105E1F60F90DF91DF
:10282000CF911F910F91FF90EF90DF90CF90BF90CD
:10283000AF9008952F923F924F925F926F927F9246
:102840008F929F92AF92BF92CF92DF92EF92FF92C0
:102850001F93CF93DF931F92CDB7DEB74B015C017F
:102860002AE0222E312C10E0C12C3AECD32E3AE98A
:10287000E32E3BE3F32E4AE0442E512C612C712CC5
:10288000C501B401A70196010E941015211108C0CD
:10289000111106C081E0C816D104E104F10439F435
:1028A00080E3820F29830E94951311E02981A22FD2
:1028B000B0E0A70196010E944115861A970AA80A5E
:1028C000B90AC701B601A30192010E94101569015E
:1028D0007A01E1E02E1A31082114310489F60F90B3
:1028E000DF91CF911F91FF90EF90DF90CF90BF903D
:1028F000AF909F908F907F906F905F904F903F90A0
:102900002F900895CF93DF93EC018991882319F0DC
:102910000E949513FACFDF91CF9108955D9BFECF72
:102920008CB90895CF93DF93FC018491EF01219638
:10293000882321F00E949513FE01F7CFDF91CF91FC
:102940000895EF92FF921F93CF93DF931F92CDB71D
:10295000DEB7182F7C018E2D811B861740F4F701FE
:1029600081917F0169830E948E146981F4CF0F9059
:10297000DF91CF911F91FF90EF9008959FB77894CA
:102980005F9908C085B7806885BF889585B78F77C0
:1029900085BFF6CF9FBF8CB18D3009F48AE00895D2
:1029A0008CE590E00E9492145F9BFECF84E590E05E
:1029B0000E9492148CB10895991B79E004C0991F6C
:1029C000961708F0961B881F7A95C9F78095089589
:1029D000AA1BBB1B51E107C0AA1FBB1FA617B70745
:1029E00010F0A61BB70B881F991F5A95A9F7809561
:1029F0009095BC01CD01089597FB072E16F4009425
:102A000007D077FD09D00E94E81407FC05D03EF4FA
:102A1000909581959F4F0895709561957F4F08958A
:102A2000A1E21A2EAA1BBB1BFD010DC0AA1FBB1FD2
:102A3000EE1FFF1FA217B307E407F50720F0A21B44
:102A4000B30BE40BF50B661F771F881F991F1A94B1
:102A500069F760957095809590959B01AC01BD01DB
:102A6000CF010895A29FB001B39FC001A39F700D35
:102A7000811D1124911DB29F700D811D1124911D86
:102A800008950E943215A59F900DB49F900DA49FAC
:102A9000800D911D1124089504D06894B1118DC04A
:102AA000089570D088F09F5790F0B92F9927B751AB
:102AB000A0F0D1F0660F771F881F991F1AF0BA9502
:102AC000C9F712C0B13081F077D0B1E0089574C079
:102AD000672F782F8827B85F39F0B93FCCF38695F8
:102AE00077956795B395D9F73EF490958095709555
:102AF00061957F4F8F4F9F4F0895E89409C097FBD2
:102B00003EF490958095709561957F4F8F4F9F4FC4
:102B10009923A9F0F92F96E9BB279395F695879508
:102B200077956795B795F111F8CFFAF4BB0F11F4CB
:102B300060FF1BC06F5F7F4F8F4F9F4F16C0882372
:102B400011F096E911C0772321F09EE8872F762FA8
:102B500005C0662371F096E8862F70E060E02AF0E9
:102B60009A95660F771F881FDAF7880F96958795D5
:102B700097F9089557FD9058440F551F59F05F3F3E
:102B800071F04795880F97FB991F61F09F3F79F08F
:102B900087950895121613061406551FF2CF469511
:102BA000F1DF08C0161617061806991FF1CF869593
:102BB0007105610508940895E894BB276627772777
:102BC000CB0197F908950BD078C069D028F06ED06A
:102BD00018F0952309F05AC05FC01124EECFCADF68
:102BE000A0F3959FD1F3950F50E0551F629FF00120
:102BF000729FBB27F00DB11D639FAA27F00DB11D79
:102C0000AA1F649F6627B00DA11D661F829F222701
:102C1000B00DA11D621F739FB00DA11D621F839F88
:102C2000A00D611D221F749F3327A00D611D231F5E
:102C3000849F600D211D822F762F6A2F11249F57AC
:102C400050408AF0E1F088234AF0EE0FFF1FBB1FCF
:102C5000661F771F881F91505040A9F79E3F51056E
:102C600070F014C0AACF5F3FECF3983EDCF386957A
:102C700077956795B795F795E7959F5FC1F7FE2B19
:102C8000880F911D9695879597F9089597F99F67F5
:102C900080E870E060E008959FEF80EC08950024E4
:102CA0000A941616170618060906089500240A94B1
:102CB00012161306140605060895092E0394000C37
:102CC00011F4882352F0BB0F40F4BF2B11F460FFC6
:102CD00004C06F5F7F4F8F4F9F4F0895CF93DF9357
:102CE0008230910510F482E090E0E0913503F0919C
:102CF000360320E030E0A0E0B0E0309739F14081C9
:102D0000518148175907B8F04817590771F4828163
:102D10009381109729F013969C938E9312972CC051
:102D2000909336038093350327C02115310531F088
:102D30004217530718F0A901DB0101C0EF019A0106
:102D4000BD01DF010280F381E02DD7CF21153105D0
:102D5000F9F0281B390B2430310580F48A819B81DE
:102D60006115710521F0FB019383828304C0909368
:102D7000360380933503FE01329644C0FE01E20F14
:102D8000F31F8193919322503109398328833AC0EC
:102D90002091330330913403232B41F420916200BE
:102DA000309163003093340320933303209160000B
:102DB000309161002115310541F42DB73EB74091A6
:102DC000640050916500241B350BE0913303F091B2
:102DD0003403E217F307A0F42E1B3F0B2817390723
:102DE00078F0AC014E5F5F4F2417350748F04E0F67
:102DF0005F1F50933403409333038193919302C038
:102E0000E0E0F0E0CF01DF91CF910895CF93DF9321
:102E1000009709F487C0FC01329713821282C09197
:102E20003503D0913603209781F420813181280F1A
:102E3000391F80913303909134038217930779F5FA
:102E4000F0933403E09333036DC0DE0120E030E003
:102E5000AE17BF0750F412964D915C9113979D01E8
:102E60004115510509F1DA01F3CFB383A283408103
:102E70005181840F951F8A179B0771F48D919C9146
:102E80001197840F951F02969183808312968D91DE
:102E90009C911397938382832115310529F4F09334
:102EA0003603E09335033EC0D9011396FC93EE93AD
:102EB00012974D915D91A40FB51FEA17FB0779F4A6
:102EC00080819181840F951F0296D90111969C9360
:102ED0008E938281938113969C938E931297E0E058
:102EE000F0E08A819B81009719F0FE01EC01F9CF97
:102EF000CE01029628813981820F931F20913303DE
:102F0000309134032817390769F4309729F4109267
:102F100036031092350302C013821282D093340319
:102F2000C0933303DF91CF910895FB01DC0102C010
:102F300001900D9241505040D8F70895DC0101C036
:102F40006D9341505040E0F70895AEE0B0E0EBEAF9
:102F5000F7E10C944D1A0D891E8986E08C831A8343
:102F600009838FEF9FE79E838D83AE01475E5F4F9E
:102F70006F89788DCE0101960E94C717EF81F88581
:102F8000E00FF11F10822E96E4E00C94691AACE079
:102F9000B0E0EDECF7E10C943F1A7C016B018A0183
:102FA000FC0117821682838181FFBDC1CE0101968B
:102FB0004C01F7019381F60193FD859193FF819177
:102FC0006F01882309F4ABC1853239F493FD8591F3
:102FD00093FF81916F01853229F4B70190E00E943F
:102FE000AF19E7CF512C312C20E02032A0F48B32E6
:102FF00069F030F4803259F0833269F420612CC0DA
:103000008D3239F0803339F4216026C0226024608B
:1030100023C0286021C027FD27C030ED380F3A308B
:1030200078F426FF06C0FAE05F9E300D1124532E7F
:1030300013C08AE0389E300D1124332E20620CC05C
:103040008E3221F426FD6BC1206406C08C3611F44B
:10305000206802C0883641F4F60193FD859193FF04
:1030600081916F018111C1CF982F9F7D955493302D
:1030700028F40C5F1F4FFFE3F9830DC0833631F056
:10308000833771F0833509F05BC022C0F80180817D
:1030900089830E5F1F4F44244394512C540115C063
:1030A0003801F2E06F0E711CF801A080B18026FF9C
:1030B00003C0652D70E002C06FEF7FEFC5012C8764
:1030C0000E94A4192C0183012C852F77222E17C072
:1030D0003801F2E06F0E711CF801A080B18026FF6C
:1030E00003C0652D70E002C06FEF7FEFC5012C8734
:1030F0000E9499192C012C852068222E830123FC23
:103100001BC0832D90E048165906B0F4B70180E249
:1031100090E00E94AF193A94F4CFF50127FC859115
:1031200027FE81915F01B70190E00E94AF19311035
:103130003A94F1E04F1A51084114510471F7E5C077
:10314000843611F0893639F5F80127FF07C0608110
:103150007181828193810C5F1F4F08C060817181F2
:10316000882777FD8095982F0E5F1F4F2F76B22E00
:1031700097FF09C090958095709561957F4F8F4F0F
:103180009F4F2068B22E2AE030E0A4010E94E1198E
:10319000A82EA81844C0853729F42F7EB22E2AE025
:1031A00030E025C0F22FF97FBF2E8F36C1F018F422
:1031B000883579F0B4C0803719F0883721F0AFC076
:1031C0002F2F2061B22EB4FE0DC08B2D8460B82E3F
:1031D00009C024FF0AC09F2F9660B92E06C028E0C0
:1031E00030E005C020E130E002C020E132E0F8012B
:1031F000B7FE07C060817181828193810C5F1F4F90
:1032000006C06081718180E090E00E5F1F4FA401D5
:103210000E94E119A82EA818FB2DFF77BF2EB6FE3D
:103220000BC02B2D2E7FA51450F4B4FE0AC0B2FCA7
:1032300008C02B2D2E7E05C07A2C2B2D03C07A2C96
:1032400001C0752C24FF0DC0FE01EA0DF11D808127
:10325000803311F4297E09C022FF06C07394739451
:1032600004C0822F867809F0739423FD13C020FFD9
:1032700006C05A2C731418F4530C5718732C73147B
:1032800068F4B70180E290E02C870E94AF19739434
:103290002C85F5CF731410F4371801C0312C24FF9E
:1032A00012C0B70180E390E02C870E94AF192C85F3
:1032B00022FF17C021FF03C088E590E002C088E725
:1032C00090E0B7010CC0822F867859F021FD02C032
:1032D00080E201C08BE227FD8DE2B70190E00E9401
:1032E000AF19A51438F4B70180E390E00E94AF193C
:1032F0005A94F7CFAA94F401EA0DF11D8081B70129
:1033000090E00E94AF19A110F5CF332009F451CEFF
:10331000B70180E290E00E94AF193A94F6CFF7012E
:103320008681978102C08FEF9FEF2C96E2E10C948B
:103330005B1AFC010590615070400110D8F7809530
:1033400090958E0F9F1F0895FC0161507040019071
:103350000110D8F7809590958E0F9F1F08950F93B9
:103360001F93CF93DF93182F092FEB018B8181FDE2
:1033700003C08FEF9FEF20C082FF10C04E815F819E
:103380002C813D81421753077CF4E881F9819F012C
:103390002F5F3F4F39832883108306C0E885F98566
:1033A000812F0995892B29F72E813F812F5F3F4F70
:1033B0003F832E83812F902FDF91CF911F910F910B
:1033C0000895FA01AA27283051F1203181F1E894BB
:1033D0006F936E7F6E5F7F4F8F4F9F4FAF4FB1E008
:1033E0003ED0B4E03CD0670F781F891F9A1FA11D03
:1033F000680F791F8A1F911DA11D6A0F711D811D04
:10340000911DA11D20D009F468943F912AE0269FC8
:1034100011243019305D3193DEF6CF010895462F27
:103420004770405D4193B3E00FD0C9F7F6CF462F08
:103430004F70405D4A3318F0495D31FD4052419371
:1034400002D0A9F7EACFB4E0A6959795879577952E
:103450006795BA95C9F700976105710508959B01B5
:10346000AC010A2E06945795479537952795BA953E
:10347000C9F7620F731F841F951FA01D08952F9217
:103480003F924F925F926F927F928F929F92AF92F4
:10349000BF92CF92DF92EF92FF920F931F93CF9341
:1034A000DF93CDB7DEB7CA1BDB0B0FB6F894DEBFD8
:1034B0000FBECDBF09942A88398848885F846E84FE
:1034C0007D848C849B84AA84B984C884DF80EE8048
:1034D000FD800C811B81AA81B981CE0FD11D0FB651
:1034E000F894DEBF0FBECDBFED010895F894FFCF75
:1034F000000037032000010002001400B80BFC0894
:1035000000000000000000000000000000000000BB
:10351000000001010101010101010101010101019D
:103520000101010101010101010102020202020285
:103530000202020202020202020303030303030364
:10354000030303030304040404040404040405053E
:10355000050505050505060606060606060707070E
:103560000707080808080809090909090A0A0A0AD0
:103570000B0B0B0B0C0C0C0C0D0D0D0E0E0E0F0F80
:103580000F10101011111212121313141415151616
:10359000161717181819191A1A1B1C1C1D1E1E1F86
:1035A000202021222323242526272828292A2B2CC2
:1035B0002D2E2F30313334353637383A3B3C3E3FB1
:1035C000404243454648494B4D4E50525456585A36
:1035D0005B5E60626466686B6D6F7274777A7C7F25
:1035E0008285888B8E9194979B9EA1A5A9ACB0B43F
:1035F000B8BCC0C4C9CDD2D6DBE0E5EAEFF4FAFF2F
:10360000010002060A120A060200080C0A090A0C46
:1036100008005E20207620204F4B005E2020762080
:10362000204F4B20434F464E494A002B20202D204F
:10363000204F4B20434F464E494A0054656D7065FC
:10364000726174757261004269657A6163613D25DA
:10365000642E25326420432000437A756A6E696BBC
:103660005F313D25642E25326420432000437A7566
:103670006A6E696B5F323D25642E253264204320DB
:10368000005A6164616E613D25642E2532642043D9
:10369000200057696C676F746E6F736300426965D1
:1036A0007A6163613D313520252520005A616461CE
:1036B0006E613D2564202525200057656E74796C68
:1036C00061636A61004F62726F74795F773D256450
:1036D0002025250050727A65707573746E69636178
:1036E0003A20256400437A617300437A61733D2573
:1036F00032643A2532643A25326400446174613D93
:103700002532643A2532643A2532640053656B757C
:103710006E64613A253264004D696E7574613A25B4
:10372000326400476F647A696E613A2532640044FE
:103730007A69656E3A253264004D69657369616323
:103740003A25326400526F6B3A2532640020577973
:103750006B6F6E616C200050696F747220426172F1
:10376000746F7369616B200025642E25642043000B
:083770003800360037000000AC
:00000001FF
