:100000000C9449010C9466010C9466010C946601F1
:100010000C9466010C9466010C9466010C946601C4
:100020000C9466010C9466010C9466010C946601B4
:100030000C9466010C9466010C9466010C946601A4
:100040000C9466010C9466010C9412210C946601C8
:100050000C9466010C9466010C9466010C94660184
:100060000C9466010C9466012C1F2E1F2E1F311F4D
:10007000311F311F311F311F341F361F361F361FEE
:10008000361F4E1F521F667265653A20202000669B
:100090006F726D61743A200077722E70722E3A2062
:1000A00000636F70793A202020004D420A00736986
:1000B0007A653A20202000646174653A202020008F
:1000C00073657269616C3A203078007265763A2007
:1000D0002020200070726F643A202020006F656D30
:1000E0003A20202020006D616E75663A202030781D
:1000F00000756E6B6E6F776E20636F6D6D616E64F1
:100100003A20006572726F722073796E63696E6750
:10011000206469736B0A0073796E63006572726F95
:1001200072206372656174696E67206469726563C9
:10013000746F72793A20006D6B6469722000657289
:10014000726F722077726974696E6720746F2066AF
:10015000696C650A006572726F72207365656B6900
:100160006E67206F6E20006572726F72206F70650F
:100170006E696E672000777269746520006572721F
:100180006F72206D6F76696E672066696C653A20C4
:10019000006D7620006572726F7220637265617403
:1001A000696E672066696C653A2000746F756368D4
:1001B00020006572726F722064656C6574696E6789
:1001C0002066696C653A2000726D20006572726F5E
:1001D000722072656164696E67206469736B20695F
:1001E0006E666F0A006469736B006572726F7220CD
:1001F0006F70656E696E67200063617420006C73B8
:10020000006469726563746F7279206E6F74206622
:100210006F756E643A200063642000696E69740033
:100220006F70656E696E6720726F6F74206469729B
:100230006563746F7279206661696C65640A006F2A
:1002400070656E696E672066696C65737973746535
:100250006D206661696C65640A006F70656E696E19
:100260006720706172746974696F6E206661696C71
:1002700065640A004D4D432F534420696E697469CB
:10028000616C697A6174696F6E206661696C65641E
:100290000A0011241FBECFEFD8E0DEBFCDBF11E0B2
:1002A000A0E0B1E0E6E2FEE402C005900D92A036C7
:1002B000B107D9F724E0A0E6B1E001C01D92AE334A
:1002C000B207E1F70E9476160C9411270C940000F7
:1002D000EF92FF920F931F93CF93DF938C01C0E0B7
:1002E000D0E0E62EF12C6C2F6C5FF80180819181BB
:1002F00097010C2E02C0359527950A94E2F720FF4E
:1003000003C00E94380302C00E9443032196C430F8
:10031000D10549F7DF91CF911F910F91FF90EF9099
:1003200008951F93CF93DF93EC01162F62956F70A2
:100330000E94680162E0888199810E945B03612FBD
:10034000CE010E94680162E088819981DF91CF919E
:100350001F910C945B031F93CF93DF93EC01162F37
:1003600060E0888199810E944303612FCE01DF9173
:10037000CF911F910C949101CF92DF92EF92FF9257
:100380000F931F93CF93DF9300D0CDB7DEB78C01CF
:100390006830E8F4660F660F660F606449835A831D
:1003A0000E94AB014981C42E5A81D52E88E0F82ED7
:1003B000F601E1906F0160E0F801808191810E9477
:1003C00038036E2DC8010E949101FA9489F70F90AD
:1003D0000F90DF91CF911F910F91FF90EF90DF90E1
:1003E000CF9008950F93011107C0D9010D900020FF
:1003F000E9F711970A2F021B50E1659FF0011124C4
:10040000E40FF11D3296402F50E0B9018E0F9F1F6F
:100410000F910C94F423FF920F931F93CF93DF93CC
:10042000EC0160E80E94AB0100E010E0FE01E00F8B
:10043000F11FF28060E0888199810E9438036F2D5E
:10044000CE010E9491010F5F1F4F0031110571F71E
:1004500060ECCE010E94AB0100E010E0FE01E00F75
:10046000F11FF28860E0888199810E9438036F2D26
:10047000CE010E9491010F5F1F4F0031110571F7EE
:10048000DF91CF911F910F91FF900895CF93DF934C
:10049000EC0140E150E060E270E002960E94FD2332
:1004A00040E150E060E270E0CE0142960E94FD2300
:1004B00061E0CE010E94AB018FE99FE00197F1F767
:1004C00000C00000DF91CF9108951F93CF93DF9379
:1004D000182F82E290E00E94B622EC01812F0E9448
:1004E000D202FE018193919340E150E060E270E01E
:1004F000CF010E94FD2340E150E060E270E0CE01B8
:1005000042960E94FD2313E063E0CE010E94680141
:1005100062E0888199810E945B038FE097E20197F6
:10052000F1F700C00000115079F762E0CE010E949F
:10053000680162E0888199810E945B038FE99FE0F6
:100540000197F1F700C0000068E2CE010E94AB0104
:1005500068E0CE010E94AB0161E0CE010E94AB01D8
:1005600066E0CE010E94AB016CE0CE010E94AB01BF
:10057000CE01DF91CF911F9108950F931F93CF93D9
:10058000DF938C01C82FD12F899199910E94DD02B0
:10059000CE010E944E23C801DF91CF911F910F9190
:1005A0000C944E23CF93C82F82E090E00E94B62295
:1005B000FC01C0831182CF9108950C944E230F93B8
:1005C0001F93CF93DF931F92CDB7DEB78C010E94AC
:1005D0007014F8018081880F81600E94801481E08E
:1005E0000E948A1489830E94781489810F90DF9178
:1005F000CF911F910F910895CF93DF93EC01698301
:100600000E9470148881880F0E94801489810E9442
:100610008014DF91CF910C947814FC016181609576
:100620000C94FC02CF93DF93EC016FEF0E94FC026D
:100630008FEC97E00197F1F700C0000060E0CE0179
:10064000DF91CF910C94FC02CF93DF931F92CDB733
:10065000DEB769830E94DF0290E0698102C0959550
:1006600087956A95E2F781700F90DF91CF91089599
:1006700021E030E001C0220F6A95EAF7FC016181B8
:10068000622B0C94FC0221E030E001C0220F6A953D
:10069000EAF7622F6095FC01218162230C94FC0231
:1006A00021E030E001C0220F6A95EAF7FC01618188
:1006B00062270C94FC021F93CF93DF93EC01162F5B
:1006C0000E9438038FEC97E00197F1F700C000001B
:1006D000612FCE01DF91CF911F910C944303FC0158
:1006E000818190E0982F88272081822B0895FC013A
:1006F00023816281862F90E0A0E0B0E07727662713
:10070000922B2081622B2181722B0895FC01718331
:1007100060830895FC01738362835183408308954D
:10072000382FFC0180E04CE89E2F931B961758F45D
:10073000219198E0522F5827869550FD84272695C1
:100740009150C1F7F1CF08959F92AF92BF92CF928F
:10075000DF92EF92FF920F931F93CF93DF93EC0101
:100760007B016A01922E58010115110521F40CEC50
:100770000E94C71A0FC005E50E94C71A18E0F501CC
:1007800001915F01292DA601B701CE010E94C71A70
:100790001150A9F7DF91CF911F910F91FF90EF902A
:1007A000DF90CF90BF90AF909F900895BF92CF926F
:1007B000DF92EF92FF920F931F93CF93DF93EC01A1
:1007C0007B016A01B22E0E94611A813079F02B2DD3
:1007D000A601B701CE010E94A40304E42B2DA601BB
:1007E000B701CE010E94C71A80E001C081E0DF910D
:1007F000CF911F910F91FF90EF90DF90CF90BF901E
:1008000008957F928F929F92AF92BF92CF92DF9284
:10081000EF92FF920F931F93CF93DF931F92CDB769
:10082000DEB76C015B014A01722E0E94611A8130B1
:10083000C9F1272DA401B501C6010E94A4030EEB46
:10084000272DA401B501C6010E94C71A870139E00E
:10085000272DA401B501C60139830E941C1BF80194
:1008600081938F013981315099F7F701918180810E
:10087000982B8281982B8381982B8481982B85815A
:10088000982B8681982B8781982B71F068E0C7019F
:1008900039830E949003F70190853981891729F0E7
:1008A00032E003C031E001C033E0832F0F90DF91CD
:1008B000CF911F910F91FF90EF90DF90CF90BF905D
:1008C000AF909F908F907F9008956F927F928F92BC
:1008D0009F92AF92CF92EF92FF920F931F93CF937D
:1008E000DF93EC014B013A01F22E0E94611A813034
:1008F00021F12F2DA301B401CE010E94A4030EE427
:100900002F2DA301B401CE010E94C71A0E2D2F2D49
:10091000A301B401CE010E94C71A0C2D2F2DA301F3
:10092000B401CE010E94C71A0A2D2F2DA301B401D4
:10093000CE010E94C71A80E001C081E0DF91CF9113
:100940001F910F91FF90EF90CF90AF909F908F905D
:100950007F906F900895BF92CF92DF92EF92FF92B7
:100960000F931F93CF93DF937C01EB016A01B22EAB
:100970000E94611A8130B1F02B2DA601BE01C70182
:100980000E94A40308E42B2DA601BE01C7010E940A
:10099000C71AF70180818B29808388818B298883FE
:1009A00080E001C081E0DF91CF911F910F91FF9016
:1009B000EF90DF90CF90BF900895CF92DF92EF92AB
:1009C000FF920F931F93CF93DF93CDB7DEB7299795
:1009D0000FB6F894DEBF0FBECDBF6701FE013196A2
:1009E0007F010E940104882321F0F6011182108208
:1009F0000BC08A8190E0982F88272981820F911D52
:100A0000F6019183808380E029960FB6F894DEBFCB
:100A10000FBECDBFDF91CF911F910F91FF90EF904F
:100A2000DF90CF9008958F929F92AF92BF92CF9216
:100A3000DF92EF92FF920F931F93CF93DF937C018E
:100A40006B015A01922EE8012097A1F10E94611AD0
:100A5000813091F103E3292DA501B601C7010E9460
:100A6000C71A8E0138E0832E292DA501B601C701D2
:100A70000E941C1BF80181938F018A94A9F71F81A2
:100A800089819881892B9A81892B9B81892B9C81D3
:100A9000892B9D81892B9E81892B812B79F067E0A1
:100AA000CE010E949003811759F088E0199281507D
:100AB000E9F708C084E007C081E005C083E003C017
:100AC00080E001C082E0DF91CF911F910F91FF90F4
:100AD000EF90DF90CF90BF90AF909F908F90089550
:100AE0004F925F926F927F92AF92BF92CF92DF92BE
:100AF000EF92FF920F931F93CF93DF9300D0CDB768
:100B0000DEB75C018B01009709F44AC062307105C1
:100B100008F446C0DC0116964D905D906D907C9077
:100B200019976801E12CF12CCC0CDD1CEE1CFF1C8C
:100B3000C40CD51CE61CF71CD501ED91FC9101906D
:100B4000F081E02D22E030E0AE014F5F5F4FC70142
:100B5000B6010995882321F109811A810115110532
:100B6000E9F0C80140960897D8F0083FBFEF1B078F
:100B700010F000E010E01A821982D501ED91FC918D
:100B80000480F581E02D22E030E0AE014F5F5F4F41
:100B9000C701B60109950115110519F681E001C0DB
:100BA00080E00F900F90DF91CF911F910F91FF90F8
:100BB000EF90DF90CF90BF90AF907F906F905F905D
:100BC0004F9008952F923F924F925F926F927F9233
:100BD0008F929F92AF92BF92CF92DF92EF92FF924D
:100BE0000F931F93CF93DF93CDB7DEB72C970FB63C
:100BF000F894DEBF0FBECDBF6C011B015A010097F8
:100C000009F45EC0DC01ED91FC91119720813181E6
:100C10003C872B87448155815C834B8316968D914D
:100C20009D910D90BC91A02D8D839E83AF83B8873D
:100C3000F601E28CF38C82859385A485B585B69503
:100C4000A795979587959A878987138E128E812C01
:100C5000912C00E010E00AC089819A81892BB9F1BA
:100C60002FEFE21AF20A3FEF831A930A49855A8559
:100C70004815590509F454C0F2E0EF16F10418F1D3
:100C800029853A85E216F306F0F42701612C712CD0
:100C9000440C551C661C771C8D819E81AF81B885E4
:100CA000480E591E6A1E7B1E22E030E0AE014F5FE7
:100CB0005F4FC301B201EB85FC8509958111CCCF53
:100CC00080E090E04FC042E0E42EF12CDECFA11492
:100CD000B10431F4D6015B96FC92EE925A9722C091
:100CE0000115110529F4EFEFFFEFFA83E98302C044
:100CF0001A83098322E030E0AE014F5F5F4FC301EA
:100D0000B201EB81FC810995811105C0B801C601D2
:100D10000E947005D5CFF1E0AF1AB1088701A0CFCE
:100D2000AB28A1F752E025163104D8F01A830983C5
:100D3000B10180E090E0660F771F881F991F2D8119
:100D40003E814F815885620F731F841F951F22E0DB
:100D500030E0AE014F5F5F4FEB81FC810995882346
:100D6000A9F2C8012C960FB6F894DEBF0FBECDBF16
:100D7000DF91CF911F910F91FF90EF90DF90CF9077
:100D8000BF90AF909F908F907F906F905F904F90AB
:100D90003F902F90089580E190E008950F931F9366
:100DA000FC01009799F06230710580F09B012250A0
:100DB0003109A089B1890E947F2102891389248980
:100DC0003589600F711F821F931F03C060E070E0C0
:100DD000CB011F910F910895FC01819191E080FB5F
:100DE000879587F92191820F9F5F9B30C1F7089506
:100DF000CF92DF92EF92FF920F931F93CF93DF93E7
:100E00006C018901F901E280F380C0E0D0E0C60105
:100E10008C0F9D1FCE15DF0568F40E946F03892B90
:100E200039F4F801208131812F5F3F4F31832083D6
:100E30002296EDCF81E0DF91CF911F910F91FF902E
:100E4000EF90DF90CF900895CF92DF92EF92FF92D4
:100E50000F931F93CF93DF93CDB7DEB761970FB694
:100E6000F894DEBF0FBECDBF6C017901D9010D91A1
:100E70001C91119712968D919C91139780961396C1
:100E80009C938E931297F6018081853E11F081111B
:100E900004C0D70114961C924BC0F60183858F3095
:100EA00009F048C0D90114968C91882319F09585D2
:100EB000891789F08BE2F80111928A95E9F7D6013A
:100EC0001D968C91F7018483D80197964D935D937D
:100ED0006D937C939A97F60180818F7390E00197D0
:100EE0004DE0489F9001499F300D1124E6E1F1E06B
:100EF000DE01119601900D924A95E1F7FE013196BF
:100F0000020F131FAE01425F5F4F2E1B3F0BC90143
:100F10008E0F9F1F4F9760F48191B601680F711D6E
:100F2000DB018C91D8018D938D01E417F50779F7DA
:100F300081E085C0F8018081882389F0C6014E8751
:100F40005F87688B798B0E94EC06D70114969C9181
:100F50004E855F8568897989981709F455C08BE2B9
:100F6000F80111928A95E9F7D80197964D935D9310
:100F70006D937C939A97D601A80180E09C91903262
:100F800099F0FA019083F601248523FF07C02C9184
:100F900021542A3118F4905EFA0190838F5F1196E4
:100FA0004F5F5F4F883051F7D8019C91953011F415
:100FB00095EE9C93F6019085903211F1F801E80FBF
:100FC000F11D9EE29083F601389634E0380F8F5F72
:100FD00090819032A9F0A801480F511DDA019C932D
:100FE000D6011C962C9124FF07C0208121542A3160
:100FF00018F4905EDA019C938F5F31968313E8CFEB
:10100000F801E80FF11D1082F6018385D801909652
:101010008C93C6014A960E946F03F80192A381A3A4
:10102000C6014C960E947703D80193966D937D93E9
:101030008D939C93969781E0F701858380E061967C
:101040000FB6F894DEBF0FBECDBFDF91CF911F91D9
:101050000F91FF90EF90DF90CF9008955F926F9285
:101060007F928F929F92AF92BF92CF92DF92EF9238
:10107000FF920F931F93CF93DF93CDB7DEB7A09767
:101080000FB6F894DEBF0FBECDBF8B01009711F4F1
:1010900080E010C161157105D9F3DC01ED91FC917F
:1010A000A480B580FB01C7A0D0A4E1A4F2A4DB0119
:1010B0000D900020E9F7FD0131973F01661A770A8C
:1010C000862CC30199270C966DE070E00E944321A5
:1010D000962E4BE050E060E270E0CE0101960E9457
:1010E000FD236EE270E0C8010E9435240097E1F014
:1010F000DC0111962C912223B9F0BC016F5F7F4F68
:10110000FB0101900020E9F73197E61BF70B8824DB
:101110008A94860C8E1AE43008F0E3E04E2F50E0FB
:10112000CE0109960E94F423B8E0B81598F0482D36
:1011300050E0B801CE0101960E94F423F8018081AD
:101140008E3219F581818E3209F4828181111DC0A0
:10115000912C1BC088E0F801DE01119601900D92E0
:101160008A95E1F7D80191968C91982F92959F706E
:10117000803A10F4905D01C09F599F838F708A3030
:1011800010F4805D01C08F5988878981853E11F4F4
:1011900085E08983FE013C9685E1DF011D928A95F9
:1011A000E9F7F80180A18C8761A172A1CE014B966D
:1011B0000E948603D80193964D915D916D917C912B
:1011C0009697CE014D960E948A03B0E29B9EC00185
:1011D0001124A7019601280F391F411D511DCA0175
:1011E000B90120E230E0AE014F5F5F4FF501099594
:1011F000882309F44DCFCE0101960E94EC06682E9B
:10120000792C6DE0862E7FE0572E772009F451C0AF
:1012100040E250E06FEF70E0CE0101960E94FD23A6
:10122000872D90E00197889EF001899EF00D112492
:10123000E00FF11F21E031E0320FBF01408181E07A
:1012400090E08C0F9D1F820F911DDC014C932E5F4F
:1012500081E090E08C0F9D1F830F911DDC011C929B
:101260002B3021F02A3119F42CE101C02EE0319607
:10127000DB018C91882311F02F31E8F2798279100B
:1012800003C0872D806489835C866E861D861B8ED5
:101290001C8E20E230E0AE014F5F5F4FC701B60108
:1012A000F5010995F0E2CF0ED11CE11CF11C7A94F6
:1012B000ACCF81E0A0960FB6F894DEBF0FBECDBFD5
:1012C000DF91CF911F910F91FF90EF90DF90CF9022
:1012D000BF90AF909F908F907F906F905F90089598
:1012E0000F931F93CF93DF9300D0CDB7DEB7FC01F0
:1012F000009731F16230710518F1A081B18180E071
:1013000090E0660F771F881F991F0681178120853F
:101310003185600F711F821F931FED91FC9122E0B8
:1013200030E0AE014F5F5F4F0995882349F0298176
:101330003A81C90101978F3E9F4F10F4C90102C045
:1013400080E090E00F900F90DF91CF911F910F916F
:101350000895EF92FF920F931F93CF93DF93CDB732
:10136000DEB760970FB6F894DEBF0FBECDBF8C011D
:1013700062307105D8F00E94CE06AE014F5F5F4F1C
:1013800020E1DA011D922A95E9F7D801ED91FC914F
:10139000119750962D913C9151970680F781E02D41
:1013A000E12CF12C0BEC16E0099501C080E0609671
:1013B0000FB6F894DEBF0FBECDBFDF91CF911F9166
:1013C0000F91FF90EF9008954F925F926F927F92EE
:1013D0008F929F92AF92BF92CF92DF92EF92FF9245
:1013E0000F931F93CF93DF9300D000D01F92CDB700
:1013F000DEB78C01FB01009709F4ADC04115510522
:1014000009F4A9C0DA010D900020E9F7CD01841B91
:10141000950B0B966DE070E00E942F218824839439
:10142000860EA080B180A114B10471F4F801C688C1
:10143000D788E08CF18C22893389448955892A83A5
:101440003B834C835D8307C01A821B821C821D82F2
:10145000C12CD12C760126013701912C2A813B81A8
:101460004C815D81C216D306E406F50609F048C03A
:10147000A114B10409F46FC0CD28CE28CF2841F1C2
:10148000B501C8010E947009009709F541E050E0DC
:10149000B501C8010E94E205AC01009709F45BC0E8
:1014A0009C0122503109F801A089B1890E947F2155
:1014B0002B013C0182899389A489B589480E591E64
:1014C0006A1E7B1EBA01C8010E94A90941C05C01C5
:1014D000B501C8010E94CE066B017C01D80150966F
:1014E0008D919C915197A7019601280F391F411D9D
:1014F000511D2A833B834C835D8326013701912C48
:10150000D801ED91FC910190F081E02D21E030E0D7
:10151000AE014F5F5F4FC701B60109958823D9F02F
:101520008981853E11F0811109C09394981480F44B
:10153000B0E2CB0ED11CE11CF11C90CF260137018B
:10154000E0E24E0E511C611C711C7301620185CFDB
:10155000B201C30104C060E070E080E090E00F9051
:101560000F900F900F900F90DF91CF911F910F91DF
:10157000FF90EF90DF90CF90BF90AF909F908F90B3
:101580007F906F905F904F9008952F923F924F926F
:101590005F926F927F928F929F92AF92BF92CF9203
:1015A000DF92EF92FF920F931F93CF93DF93CDB70C
:1015B000DEB7A8970FB6F894DEBF0FBECDBF9B8FE6
:1015C0008A8F009709F454C1DC0114968D919C9187
:1015D0001597892B09F44CC116968D919C911797FC
:1015E000892B09F445C18091F5019091F601892B71
:1015F00009F03EC1E5EFF1E08CE1DF011D928A9533
:10160000E9F7EA8DFB8DF093F601E093F501818512
:101610009285A385B48509E0880F991FAA1FBB1F77
:101620000A95D1F78C8F9D8FAE8FBF8FBC01CD01F6
:10163000655F7F4F8F4F9F4F0190F081E02D29E133
:1016400030E0AE014F5F5F4F0995811105C01092E8
:10165000F6011092F5010CC1CE0101960E946F03B4
:101660001C01CE0104960E946F0399A388A3BB813D
:10167000BAA39E80CE0107960E946F039CA38BA302
:10168000CE0109960E946F035C01CE010C960E9468
:101690006F038C01CE0146960E9477036B017C019B
:1016A000611571058105910531F4A114B10479F238
:1016B0006501E12CF12C0115110549F29801A92DC4
:1016C000B0E00E947F214B015C0197018601E8A1F7
:1016D000F9A10E1B1F0B21093109061B170B280B43
:1016E000390BC10101974BA15CA165E0440F551F67
:1016F0006A95E1F7840F951FB1010E942F21061B07
:10170000170B21093109FAA14F2E512C612C712C94
:10171000C901B801A30192010E94572129013A0190
:1017200025EF42162FE052066104710408F48FCFB2
:1017300045EF44164FEF54066104710430F486E01F
:10174000AA8DBB8D18968C9304C08BE0EA8DFB8D1F
:10175000808788E1E7EFF1E0DF011D928A95E9F7E4
:10176000C101A0E0B0E08DA39EA3AFA3B8A7A701DD
:101770009601BC01CD010E9413216093F701709383
:10178000F8018093F9019093FA019101A8A1B9A100
:101790000E947F216B017C018C8D9D8DAE8DBF8D54
:1017A000C80ED91EEA1EFB1EC092FB01D092FC019E
:1017B000E092FD01F092FE01C301B2016E5F7F4F26
:1017C0008F4F9F4FAA8DBB8D18962C91263029F4F0
:1017D00022E030E040E050E004C024E030E040E0AF
:1017E00050E00E9413216093FF01709300028093E8
:1017F0000102909302023092040220920302BAA1E5
:10180000B29DC001B39D900D112490930602809368
:101810000502A50194016DA17EA18FA198A50E944A
:1018200013216C0D7D1D8E1D9F1D60930B02709307
:101830000C0280930D0290930E02EBA1FCA18F018C
:1018400020E030E045E0000F111F221F331F4A95B2
:10185000D1F7060F171F281F391F00930702109397
:1018600008022093090230930A0285EF91E002C03A
:1018700080E090E0A8960FB6F894DEBF0FBECDBF13
:10188000DF91CF911F910F91FF90EF90DF90CF905C
:10189000BF90AF909F908F907F906F905F904F9090
:1018A0003F902F900895009719F0FC01118210824B
:1018B0000895009759F16115710541F1FB0120A1CF
:1018C00024FD24C02091C2013091C301232BF1F4E7
:1018D0002BE2FB01A4ECB1E001900D922A95E1F717
:1018E0009093C3018093C2011092EF011092F00116
:1018F0001092F1011092F201FB0181A192A190934B
:10190000F4018093F30182EC91E0089580E090E08F
:101910000895009719F0FC011182108208952F920A
:101920003F924F925F926F927F928F929F92AF926F
:10193000BF92CF92DF92EF92FF920F931F93CF93BC
:10194000DF93CDB7DEB728970FB6F894DEBF0FBE92
:10195000CDBF98878F831B017A01892B19F48FEFF4
:101960009FEFCFC061157105D1F341155105B9F352
:10197000AF81B8859D968D909D90AD90BC90D0978D
:1019800095968D919D910D90BC91A02DB501A401CE
:101990004E0D5F1D611D711D84179507A607B707C2
:1019A00028F47C01E818F90809F4A9C0AF81B885CA
:1019B000ED91FC911197808991899A838983D196C1
:1019C0000D911C91D29701151105D9F593960D91A2
:1019D0001C9194970115110561F481E090E089282C
:1019E0008A288B2811F480E090E0919581959109E7
:1019F00088C081149104A104B10419F124013501B6
:101A0000A981BA819D0140E050E042165306640668
:101A10007506B8F0421A530A640A750AB801EF81D4
:101A2000F885808191812B833C834D835E830E9466
:101A300070098C012B813C814D815E81009729F7D3
:101A40008ECFC980DA80F1E0CF1AD108C820D92022
:101A50005701AF81B8856D907C90B801C3010E9499
:101A6000CE0689809A808C189D08A814B90408F4C1
:101A70004501D301ED91FC916C0D7D1D811D911DE2
:101A80000190F081E02D9401A1010995882339F19D
:101A9000280C391CA818B908EF81F88585A596A5EA
:101AA000A7A5B0A9880D991DA11DB11D85A796A751
:101AB000A7A7B0AB8C0C9D1C89819A8188169906CA
:101AC000A0F0B801808191810E9470098C0100977B
:101AD00051F4AF81B885D2961C921E92D197C7015E
:101AE0008A199B090EC0C12CD12CEF81F88512AB4D
:101AF00001ABA114B10409F0ACCFC70102C080E072
:101B000090E028960FB6F894DEBF0FBECDBFDF91F0
:101B1000CF911F910F91FF90EF90DF90CF90BF90EA
:101B2000AF909F908F907F906F905F904F903F907D
:101B30002F9008952F923F924F925F926F927F92D3
:101B40008F929F92AF92BF92CF92DF92EF92FF92CD
:101B50000F931F93CF93DF9300D000D0CDB7DEB7A4
:101B60009C838B836B015A834983892B19F48FEFF4
:101B70009FEF0DC161157105D1F389819A81892B80
:101B8000B1F3AB81BC819D964D915D916D917C913E
:101B9000D09795968D919D910D90BC91A02D841715
:101BA0009507A607B70718F3EB81FC818081918127
:101BB000DC0150962D903C90519701A912A971011A
:101BC000B1E0EB1AF108E422F5220115110509F044
:101BD0004EC003A114A101151105A1F4452B462BFC
:101BE000472B29F641E050E060E070E00E94E205FA
:101BF0008C01EB81FC8194A383A3009719F480E00E
:101C000090E0C5C0AB81BC819D968D909D90AD90BC
:101C1000BC90D09781149104A104B10441F1210139
:101C2000612C712C84149504A604B70400F1841867
:101C30009508A608B708B801EB81FC8180819181E5
:101C40000E947009009789F481149104A104B104E1
:101C500009F08DCF41E050E0B801AB81BC818D919E
:101C60009C910E94E205009751F28C01DBCFA98084
:101C7000BA80EB81FC8160807180B801C3010E9451
:101C8000CE0641018E189F08A814B90408F4450136
:101C9000D301ED91FC916E0D7F1D811D911D04807E
:101CA000F581E02D9401A6010995882309F442C02D
:101CB000C80CD91CA818B908EB81FC8185A596A58C
:101CC000A7A5B0A9880D991DA11DB11D85A796A72F
:101CD000A7A7B0AB8E0C9F1C8214930408F1B80127
:101CE000808191810E9470090097B9F4A114B10418
:101CF00039F4AB81BC81D2961C921E92D1971AC046
:101D000041E050E0B801EB81FC81808191810E942B
:101D1000E2058C01009711F4ECCF8C01E12CF12C41
:101D2000AB81BC81D2961C930E93D197A114B104C0
:101D300009F09FCFEB81FC8185A596A5A7A5B0A949
:101D4000C5A0D6A0E7A0F0A4C816D906EA06FB06EF
:101D5000D0F485A396A3A7A3B0A7BF016E5F7F4F62
:101D6000808191810E942E0881110DC0AB81BC81C0
:101D70009D96AD90BC909E97AC18BD08FD01C5A680
:101D8000D6A6E7A6F0AA89819A818A199B090F90A5
:101D90000F900F900F90DF91CF911F910F91FF90B7
:101DA000EF90DF90CF90BF90AF909F908F907F90FB
:101DB0006F905F904F903F902F9008952F923F9299
:101DC0004F925F926F927F928F929F92AF92BF924B
:101DD000CF92DF92EF92FF920F931F93CF93DF93F7
:101DE00000D0CDB7DEB71C016A017B01009711F46A
:101DF00080E0BFC0DC0193960D911C919497ED910A
:101E0000FC91808891880115110529F02601370180
:101E1000A12CB12C13C04115510561057105B1F715
:101E200097C0B801F101808191810E9470090097EB
:101E300069F0481859086A087B088C0184149504D5
:101E4000A604B70470F301151105F9F4C501B40136
:101E5000640D751D861D971D6150710981099109D9
:101E6000A50194010E945721A901B801D1018D91CA
:101E70009C910E94E205009709F4BACF0115110563
:101E800021F4F10194A383A38C01D1019596CD9205
:101E9000DD92ED92FC929897C114D104E104F10413
:101EA00021F494961C921E929397B1016E5F7F4F1E
:101EB000F101808191810E942E08882309F498CF36
:101EC000C114D104E104F10429F4B801D1018D91C8
:101ED0009C913CC084149504A604B704C8F1F10198
:101EE000A080B180A114B10499F10230110580F1F4
:101EF000B801C5010E9470094C018FEF9FEF9A83D2
:101F00008983D501ED91FC911197B80180E090E0B3
:101F1000660F771F881F991F16960D911D912D91A1
:101F20003C911997600F711F821F931F0480F581E8
:101F3000E02D22E030E0AE014F5F5F4F099588232E
:101F400039F08114910421F0B401C5010E9470059B
:101F5000F10185A596A5A7A5B0A9C816D906EA06D8
:101F6000FB0630F4C5A6D6A6E7A6F0AA12AA11AAC7
:101F700081E00F900F90DF91CF911F910F91FF9013
:101F8000EF90DF90CF90BF90AF909F908F907F9019
:101F90006F905F904F903F902F900895CF92DF9277
:101FA000EF92FF920F931F93CF93DF93EC018B017E
:101FB000009709F443C06115710509F43FC08DA570
:101FC0009EA5AFA5B8A9413099F060F04230B1F5B7
:101FD000FB01C080D180E280F3808DA19EA1AFA1E2
:101FE000B8A50BC0FB01C080D180E280F38009C09E
:101FF000FB01C080D180E280F380C80ED91EEA1EAA
:10200000FB1E8DA19EA1AFA1B8A58C159D05AE05A7
:10201000BF0568F0CDA6DEA6EFA6F8AA1AAA19AAEF
:10202000F801C082D182E282F38281E008C0B70168
:10203000A601CE010E94DE0E8111ECCF80E0DF917F
:10204000CF911F910F91FF90EF90DF90CF90089567
:10205000CF93DF93009799F06115710581F0FB0133
:1020600020A124FF0CC02091600130916101232B3D
:1020700049F02091910130919201232B31F080E0C1
:1020800090E017C0C0E6D1E002C0C1E9D1E0DE01B6
:1020900012962BE2FB0101900D922A95E1F79983AC
:1020A0008883FB0181A192A19EA78DA718AA1FA6D4
:1020B000CE01DF91CF910895009719F0FC011182B4
:1020C00010820895FC01009741F083A194A196A786
:1020D00085A710AA17A681E0089580E008952F92A1
:1020E0003F924F925F926F927F928F929F92AF92A8
:1020F000BF92CF92DF92EF92FF920F931F93CF93F5
:10210000DF93CDB7DEB7A8970FB6F894DEBF0FBE4A
:10211000CDBF4C010097C1F061157105A9F0DC013C
:102120002D903C901197F101408851889D966D90BB
:102130007C909E979F96AD90BC90D097A414B504C8
:1021400028F0C4010E94621080E073C09E012F5DE0
:102150003F4F38A72FA386E0D9011D928A95E9F752
:102160008BE2FB0111928A95E9F77AA369A36114C6
:102170007104F1F5D10152964D905C9053975696AB
:102180008D919C915797481A590A32C082010A19B9
:102190001B096501E12CF12C6114710469F5F10151
:1021A00066897789808D918D6C0D7D1D8E1D9F1D9B
:1021B0001CA21BA2D101ED91FC910280F381E02DC4
:1021C0009E012F5D3F4F690124E2E22E27E0F22EAF
:1021D00020E230E0AE014F5F5F4F0995882309F49C
:1021E000B3CF8BA19CA1A80EB91EA414B50448F4CA
:1021F0008EA1882359F213C0B301C1010E94CE06FB
:10220000D3CFB301C1010E9470093C01009721F4B2
:102210008EA1811104C095CFA12CB12CE9CFD4019E
:102220009E967C926E929D97D096BC92AE929F970E
:102230008EA1A8960FB6F894DEBF0FBECDBFDF917A
:10224000CF911F910F91FF90EF90DF90CF90BF90B3
:10225000AF909F908F907F906F905F904F903F9046
:102260002F9008958F929F92AF92BF92CF92DF925C
:10227000EF92FF920F931F93CF93DF935C01EB01DB
:102280008A01009709F46AC0209709F467C0888121
:10229000882309F463C04115510509F45FC08F32EA
:1022A00009F421968BE2F80111928A95E9F780E111
:1022B000F80180A38881811102C081E050C0B8017B
:1022C000C5010E9428107C01009709F447C06FE205
:1022D00070E0CE010E940424009741F0C82ECC1A71
:1022E0004C012FEF821A920AD12C16C0FE010190E8
:1022F0000020E9F73197EC1BFD0BCE2E4E018E0E20
:10230000911CF2CFF80101900020E9F73197E01B12
:10231000F10BEC15FD0539F0B801C7010E946F10F3
:102320008111F0CF17C0A601B801CE010E94182478
:10233000892B91F7C7010E945C10CC0DDD1D8881AF
:10234000882309F4BACFF80180A184FF07C0E40113
:10235000E12CF12CC7010E945C10ACCF80E0DF9132
:10236000CF911F910F91FF90EF90DF90CF90BF9092
:10237000AF909F908F900895CF92DF92EF92FF924F
:102380000F931F93CF93DF938C016B01EA010097AA
:10239000F1F161157105D9F1FB0180818823B9F153
:1023A0002097A9F1BE01C8010E946F10882359F03F
:1023B000BE01C6010E940F24892BA1F7C8010E940B
:1023C000621092E025C0F801E080F1808BE2FE010E
:1023D00011928A95E9F74FE150E0B601CE010E94D3
:1023E0002624B8016D5D7F4FAE01C7010E94E4094C
:1023F0006FA378A789A79AA7672B682B692B39F059
:10240000BE01C7010E942E0891E0811101C090E039
:10241000892FDF91CF911F910F91FF90EF90DF9067
:10242000CF9008959F92AF92BF92CF92DF92EF929A
:10243000FF920F931F93CF93DF93CDB7DEB72C9707
:102440000FB6F894DEBF0FBECDBF8C015B010097C5
:1024500011F480E04BC061157105D9F3DB0197964B
:10246000CD90DD90ED90FC909A97C114D104E104D9
:10247000F10479F335EE932ED801ED91FC910190A2
:10248000F081E02D2CE030E0AE014F5F5F4FC701DF
:10249000B60109958823E9F29982D801ED91FC9162
:1024A0000480F581E02D2CE030E0AE014F5F5F4FFE
:1024B000C701B6010995882361F28C858F3031F40C
:1024C000B0E2CB0ED11CE11CF11CD6CFF50161A10D
:1024D00072A16115710541F0C8010E94700591E07B
:1024E000811103C090E001C091E0892F2C960FB6B6
:1024F000F894DEBF0FBECDBFDF91CF911F910F913A
:10250000FF90EF90DF90CF90BF90AF909F90089595
:10251000EF92FF920F931F93CF93DF93CDB7DEB768
:10252000AB970FB6F894DEBF0FBECDBF7C018B0119
:10253000CA01E114F104D9F161157105C1F10097E7
:10254000B1F12115310521F0F9014081442379F1E0
:10255000FC0140815181E416F50649F5211531054C
:1025600009F49801AE014F5F5F4FB9010E94BC11A1
:102570008823E9F0F80180A189A381A192A19BA3FE
:102580008AA343A154A165A176A14CA35DA36EA328
:102590007FA3BE016F5F7F4FC7010E942E0881118C
:1025A00008C0BE016F5F7F4FC7010E94121280E01A
:1025B00012C0F80112A211A2B801C7010E941212A2
:1025C0008823A9F38BE2FE013196D80101900D9288
:1025D0008A95E1F781E0AB960FB6F894DEBF0FBEA7
:1025E000CDBFDF91CF911F910F91FF90EF90089594
:1025F0004F925F926F927F92AF92BF92CF92DF9293
:10260000EF92FF920F931F93CF93DF936C015B01C7
:10261000EA01009709F48CC06115710509F488C0BE
:10262000FB018081882309F483C0209709F480C0CE
:10263000BE01C6010E946F10882351F0BE01C50182
:102640000E940F24892BA1F7C6010E94621070C05E
:10265000F6010081118141E050E060E070E0C801C6
:102660000E94E2057C01009709F462C0BC01C80128
:102670000E94A9098BE2FE0111928A95E9F780E197
:1026800088A3F801A089B1899701225031090E94DD
:102690007F214288538864887588640D751D861D66
:1026A000971D6FA378A789A79AA74EE2742E788208
:1026B000FAA2E9A2BE01C8010E942E088823A1F156
:1026C0008FA198A5A9A5BAA58096A11DB11D8FA31C
:1026D00098A7A9A7BAA77982F60183A194A19AA382
:1026E00089A3BE01C8010E942E088823E9F04FE1AA
:1026F00050E0B501CE010E942624FAA2E9A2B6015B
:102700006D5D7F4FAE01C8010E94E4096FA378A7F9
:1027100089A79AA7672B682B692B31F0BE01C801E6
:102720000E942E08811106C0B701C8010E947005E1
:1027300080E001C081E0DF91CF911F910F91FF9068
:10274000EF90DF90CF90BF90AF907F906F905F90B1
:102750004F900895009791F0FC01228533854485C0
:10276000558556954795379527952250310941094A
:102770005109A089B1890E948E21089560E070E01E
:10278000CB0108952F923F924F925F926F927F926A
:102790008F929F92AF92BF92CF92DF92EF92FF9271
:1027A0000F931F93CF93DF93CDB7DEB7A6970FB6E6
:1027B000F894DEBF0FBECDBF3C01009721F460E06E
:1027C00070E0CB0156C01AA219A280E290E09CA34F
:1027D0008BA3D30116962D903D904D905C90199748
:1027E0001A968D909D90AD90BC901D978114910488
:1027F000A104B104B9F1BEEF8B16BFEF9B06A10493
:10280000B10418F49EA28DA204C0EEEFFFEFFEA368
:10281000EDA3D301ED91FC910280F381E02D9E01A7
:102820002F5D3F4F690178EFE72E76E0F72E0DA17F
:102830001EA120E230E0AE014F5F5F4FC201B10147
:102840000995882309F4BBCF0DA11EA1C801A0E002
:10285000B0E0280E391E4A1E5B1E881A990AAA0A81
:10286000BB0AC4CFA9A1BAA1F301208931890E9472
:102870007F21A6960FB6F894DEBF0FBECDBFDF91C5
:10288000CF911F910F91FF90EF90DF90CF90BF906D
:10289000AF909F908F907F906F905F904F903F9000
:1028A0002F90089548EE53E09C01249FC001259F7E
:1028B000900D349F900D11249C0140E050E060E0A9
:1028C00072E18AE790E00E945721205131094109C5
:1028D000510956954795379527952093B800089547
:1028E00084EA8093BC008091BC0087FFFCCF0895F0
:1028F00084E98093BC008091BC0084FDFCCF0895E6
:102900008093BB0084E88093BC008091BC0087FF6B
:10291000FCCF0895882311F084EC01C084E88093F3
:10292000BC008091BC0087FFFCCF8091BB00089564
:102930000F931F93CF93DF93CDB7DEB769970FB691
:10294000F894DEBF0FBECDBF8C01009711F480E07C
:10295000A1C0CE0101960E94F41E8823C1F386EE29
:1029600090E00E94EE2089810E9401208AE00E946E
:10297000F21F8DED90E00E94EE20CE0102960E94A3
:10298000E2208AE00E94F21F84ED90E00E94EE2097
:10299000CE0105960E94E2208AE00E94F21F8BEC95
:1029A00090E00E94EE208B850E9401208AE00E9428
:1029B000F21F80EC90E00E94EE206C857D858E8574
:1029C0009F850E9422208AE00E94F21F87EB90E000
:1029D0000E94EE20898990E00E9432208FE20E94BE
:1029E000F21F888990E00E9432208AE00E94F21F44
:1029F0008EEA90E00E94EE206A897B898C899D890D
:102A000024E196958795779567952A95D1F70E9449
:102A10007A208AEA90E00E94EE2081EA90E00E940B
:102A2000EE208E8990E00E9432208AE00E94F21F00
:102A300088E990E00E94EE20888D90E00E9432208C
:102A40008FE20E94F21F8F8990E00E9432208AE07C
:102A50000E94F21F8FE890E00E94EE20898D90E0A6
:102A60000E9432208AE00E94F21F86E890E00E94D5
:102A7000EE20C8010E94C2130E947A208FE20E94B9
:102A8000F21FC8010E94AA130E947A208AE00E94C5
:102A9000F21F81E069960FB6F894DEBF0FBECDBF7E
:102AA000DF91CF911F910F910895EF92FF920F93B5
:102AB0001F93CF93DF93EC017B018A01B801CE0114
:102AC0000E946F10882351F0B701C8010E940F24A3
:102AD000892BA1F7CE010E94621081E0DF91CF9196
:102AE0001F910F91FF90EF900895CF92DF92FF9288
:102AF0000F931F93CF93DF931F92CDB7DEB76C0177
:102B000088E1D6011D928A95E9F7F12C0F2D10E08E
:102B10000731110534F50E94FD20982F883011F0FF
:102B20008F3789F4FF2091F3FA94F601EF0DF11D30
:102B3000108288E00E94F21F80E20E94F21F88E06B
:102B40000E94F21FE3CF99830E94F21FF601E00F6B
:102B5000F11F99819A3011F4108203C09083F3948D
:102B6000D5CF8F2D0F90DF91CF911F910F91FF90B7
:102B7000DF90CF9008956AE00E94232120E1829F98
:102B8000900D1124892F0895982F92959F708F7022
:102B90002AE0929F800D11240895CF92EF920F9317
:102BA0001F93CF93DF9300D01F92CDB7DEB7182FBE
:102BB0002B834A8369830E94701480ED0E948014E5
:102BC00080E00E948014812F0E94BB150E94801417
:102BD0006981862F0E94BB150E9480144A81842F30
:102BE0000E94BB150E9480142B81822F0E94BB156E
:102BF0000E948014802F0E94BB150E9480148E2D8D
:102C00000E94BB150E9480148C2D0E94BB150E944F
:102C100080140F900F900F90DF91CF911F910F9123
:102C2000EF90CF900C9478146F927F928F929F9236
:102C3000AF92BF92CF92DF92EF92FF920F931F93CA
:102C4000CF93DF93EC014B015A0139010E947014BC
:102C500080ED0E94801480E00E9480140E9478140D
:102C60000E94701481ED0E94801481E00E948A14F9
:102C70008F770E94C415888381E00E948A140E9485
:102C8000C415F401808381E00E948A148F730E942E
:102C9000C415F501808381E00E948A140E94C41546
:102CA000F301808381E00E948A140E94C415F80118
:102CB000808381E00E948A140E94C415F7018083FA
:102CC00081E00E948A140E94C415F6018083DF917E
:102CD000CF911F910F91FF90EF90DF90CF90BF9019
:102CE000AF909F908F907F906F900895CF93DF93D8
:102CF000CDB7DEB7C75AD1090FB6F894DEBF0FBE05
:102D0000CDBF0E94E61F0E94701480ED0E948014C7
:102D10008EE00E94801480E20E94801488E00E946D
:102D200080140E94781484E690E00E9452148FE38D
:102D30000E94650290932904809328044EE051E09C
:102D400061E00E94BC0146E051E062E0809128040D
:102D5000909129040E94BC0180912804909129043B
:102D60000E9446020AE023E231E043E060E0809105
:102D70002804909129040E94F2010FE02EE231E034
:102D800040E061E080912804909129040E94F201C2
:102D900080912804909129040E940B02C12CEE24FA
:102DA000E39401E021E04CE06BE380E00E94CD156C
:102DB00081E084B9E0912804F091290463E08081E6
:102DC00091810E94380300E010E021E043E250E0EE
:102DD00064E270E085E290E00E94D6032FEF89E67E
:102DE00098E1215080409040E1F700C00000FE01D2
:102DF000E956FF4F7F0121E043E250E064E270E0DA
:102E000085E290E00E94DD04C956DF4F6881798138
:102E1000C759D040882777FD8095982F0E94C721F9
:102E200020E030E048EC50E40E942B220E949921DF
:102E3000CB0164E670E00E942F219F938F937F93D4
:102E40006F938EE391E09F938F93CE018D579F4FA9
:102E50009F938F930E944024B82ECE0187569F4F98
:102E60006C01FE01E656FF4F7F018E0105561F4F94
:102E70009E0124563F4FAE0143565F4FBE0162563E
:102E80007F4F06960E941416C156DF4F8881CF5996
:102E9000D0401F928F93C256DF4F8881CE59D040C9
:102EA0001F928F93C356DF4F8881CD59D0401F9218
:102EB0008F9320E531E03F932F939E0121593F4F9F
:102EC0003F932F930E944024082FFFEF22E587E0D5
:102ED000F15020408040E1F700C0000080912804BC
:102EE000909129040E9446029E0121593F4F40E0E3
:102EF00060E080912804909129040E94F2010B2D3A
:102F00009E012D573F4F40E061E080912804909151
:102F100029040E94F20180912804909129040E94C2
:102F20000B020FB6F894DEBF0FBECDBF47E5642E8F
:102F3000712C6C0E7D1EF6E06F0E711CCE01019699
:102F40007C0157E5852E912C8C0E9D1E93E0890EF9
:102F5000911CE7E5F0E0EC0FFD1F3496CA55DF4FFA
:102F6000F983E883C65AD0400E94081D811103C02E
:102F700084E792E049C000E02EE93EE145EE5DE1E4
:102F800060E97DE18AE59CE10E944F1BC056DF4F5E
:102F900099838883C05AD040892BB1F40FEF2EE972
:102FA0003EE145EE5DE160E97DE18AE59CE10E945C
:102FB0004F1BC056DF4F99838883C05AD040892B5E
:102FC00019F48AE592E020C0C056DF4F88819981CC
:102FD000C05AD0400E94C50A6C01009719F48FE3D3
:102FE00092E012C0AE01445D5F4F6EE571E00E9459
:102FF0003211BE01645D7F4FC6010E9428108C0112
:10300000009729F480E292E00E94EE20ADCFC60145
:103010000E9498148EE30E94F21F80E20E94F21F29
:10302000CE01895A9F4F0E947515882399F36BE151
:1030300072E0CE01895A9F4F0E94DD23892B09F44B
:10304000C6C143E050E067E172E0CE01895A9F4F6C
:103050000E94E623892BD9F46B968FAD6B9788235A
:10306000C9F2A701B401C8010E945515882361F077
:10307000B701C6010E9428105C01009729F0C80121
:103080000E945C108501C6CF81E092E0F0C06EEF37
:1030900071E0CE01895A9F4F0E94DD23892B69F58B
:1030A000B701C8010E946F10882309F4B3CFF7015C
:1030B00001900020E9F73197EE19FF0934E2B32EB1
:1030C000BE1AC7010E94E22089A184FF02C08FE2DC
:1030D00001C080E20E94F21FBB2029F080E20E9422
:1030E000F21FBA94F9CF6CA17DA18EA19FA10E947D
:1030F0007A208AE00E94F21FD3CF44E050E069EFCB
:1031000071E0CE01895A9F4F0E94E623892B09F076
:1031100083C06C968FAD6C97882309F47BCFA70191
:10312000CA55DF4F68817981C65AD040C8010E94D4
:103130005515882359F0B701C6010E94590CCE5588
:10314000DF4F99838883C25AD04006C0CE55DF4FE7
:1031500019821882C25AD040CE55DF4F888199819A
:10316000C25AD040892B21F0212C312C21012EC0B4
:103170008AEE91E00E94EE20CA55DF4F8881998146
:10318000C65AD0401EC180E20E94F21FCC55DF4FCC
:10319000E881F981C45AD0408191CC55DF4FF98341
:1031A000E883C45AD0400E940120CC55DF4F88816B
:1031B0009981C45AD0408A159B0529F78AE00E945C
:1031C000F21F98E0290E311C411C511C48E050E0D0
:1031D000B701CE55DF4F88819981C25AD0400E94F5
:1031E0008F0C5C011816190684F4C201B1010E940B
:1031F00022208AE30E94F21FCC55DF4FF982E88239
:10320000C45AD040AE0CBF1CBECFCE55DF4F888114
:103210009981C25AD0409BC065EE71E0CE01895AB7
:103220009F4F0E94DD23892B41F4C6010E94981410
:103230008111F0CE8CEC91E0BAC043E050E068EC34
:1032400071E0CE01895A9F4F0E94E623892BD1F469
:103250006B968FAD6B97882309F4DCCEA701B40180
:10326000C8010E945515811106C082EB91E00E94B1
:10327000EE20C401A6C0B701C6010E941212882325
:10328000A1F3C8CE46E050E06BEA71E0CE01895A66
:103290009F4F0E94E623892B81F46E968FAD6E9727
:1032A000882309F4B7CEA701B301C8010E94BC115D
:1032B0008111B0CE85E991E067C043E050E061E95B
:1032C00071E0CE01895A9F4F0E94E623892B79F441
:1032D0006B968FAD6B97882309F49CCEF4015F0148
:1032E0008191803209F482C08111F9CF93CE46E0FA
:1032F00050E066E771E0CE01895A9F4F0E94E623B5
:10330000892B41F56E968FAD6E97882309F482CE96
:10331000F301DF018191803209F47EC08111F9CF80
:1033200079CE29833A834B835C8340E0B701C501A2
:103330000E94CE0F8111A6C085E591E00E94EE208B
:10334000C3010E94E2208AE00E94F21FC5010E9490
:10335000890C60CE46E050E067E371E0CE01895A07
:103360009F4F0E94E623892B99F46E968FAD6E973E
:10337000882309F44FCEA701B301C8010E94F812B7
:10338000811148CE8CE191E00E94EE20C30119C06A
:1033900067E171E0CE01895A9F4F0E94DD23892B9E
:1033A00049F40E943E1C811135CE83E091E00E94D9
:1033B000EE2030CE81EF90E00E94EE20CE01895ABF
:1033C0009F4F0E94E2208AE00E94F21F23CEC80194
:1033D0000E945C10C6010E94530CC056DF4F8881CA
:1033E0009981C05AD0400E94DA1BBECDF5011082EF
:1033F000A701B401C8010E945515882351F0950119
:103400002F5F3F4FA801B701C6010E9488128111AA
:1034100001CE8DE791E02BCF2D01FFEF4F1A5F0A10
:103420001C92A701B301C8010E945515882331F0F1
:10343000B701C6010E94590C5C0102C0A12CB12C3D
:10344000A114B10429F0F20120E030E0A90103C089
:1034500087E691E099CF519080ED850D8A3008F094
:1034600060CFAAE0B0E00E948E21252D30E02053ED
:103470003109442737FD4095542F260F371F481F29
:10348000591FE9CF8CE30E94F21F80E20E94F21FD5
:10349000CE01895A9F4F0E947515882309F456CF93
:1034A000482E512CA201BE01695A7F4FC5010E94CE
:1034B0009A0D8415950531F38EE391E00E94EE207C
:1034C00045CFCF93DF93FC01DB013FB78081822B97
:1034D00080838C91822B8C938081922F909589236D
:1034E0008083CFEAD4E02197F1F700C000008C91EF
:1034F00089238C93DAEBDA95F1F700C0EA01988121
:10350000CFE8D1E02197F1F700C000008081822B45
:1035100080838C91822B8C93EFEAF4E03197F1F762
:1035200000C000003FBF922381E009F480E0DF91FA
:10353000CF9108950F93FC019FB78081822B8083E8
:10354000DB018C91822B8C938081322F30958323E9
:103550008083002321F0B5E1BA95F1F703C085ED32
:103560008A95F1F700008081822B8083002321F06F
:10357000A5EDAA95F1F703C0B5E0BA95F1F7000003
:103580009FBF81E0011101C080E00F9108957F92FB
:103590008F929F92AF92BF92CF92DF92EF92FF9263
:1035A0000F931F93CF93DF937C016B015A01822EFF
:1035B000702E9FB6C8E0D0E011E0012F0721282D22
:1035C000A501B601C7010E949A1A110F21972097F1
:1035D000A1F79FBEDF91CF911F910F91FF90EF90C8
:1035E000DF90CF90BF90AF909F908F907F90089585
:1035F000FC01DB013FB78081822B80838C91822B81
:103600008C938081922F90958923808385E08A9581
:10361000F1F700008C9189238C93EDE0EA95F1F7A6
:103620000000FA019081F0EAFA95F1F73FBF92238A
:1036300081E009F480E008958F929F92AF92BF924B
:10364000CF92DF92EF92FF920F931F93CF93DF936E
:103650008C017B016A01822E9FB6C8E0D0E0AA24CB
:10366000A394B12C282DA601B701C8010E94F81A15
:10367000A89E802D1124B82AAA0C2197209791F793
:103680009FBE8B2DDF91CF911F910F91FF90EF90F7
:10369000DF90CF90BF90AF909F908F9008958F92C2
:1036A0009F92AF92BF92CF92DF92EF92FF920F93D1
:1036B000CF93DF93CDB7DEB760970FB6F894DEBF38
:1036C0000FBECDBF7C016B014A015901009719F46F
:1036D00080E090E05DC061157105D1F30430C4F75E
:1036E00007FF05C0809119028111F2CF17C080E158
:1036F0000802B001112462547E4F882777FD80951F
:10370000982F20E130E0AE014F5F5F4FF701099540
:103710008823F1F28D818111E5CFDACF81E1E1E1FA
:10372000F2E0DF011D928A95E9F7F0921202E09231
:103730001102D0921402C09213029092160280924B
:103740001502B0921802A092170207FD1CC08D81CD
:1037500080931902CE0109960E94770360931A02A2
:1037600070931B0280931C0290931D02CE010D9654
:103770000E94770360931E0270931F0280932002C1
:103780009093210203C08FEF8093190281E192E0B0
:1037900060960FB6F894DEBF0FBECDBFDF91CF911C
:1037A0000F91FF90EF90DF90CF90BF90AF909F90E0
:1037B0008F900895009721F0FC01108681E0089514
:1037C00080E008958EBD0DB407FEFDCF8DB58F77D7
:1037D0008DBD08958FEF8EBD0DB407FEFDCF8DB565
:1037E0008F778DBD8EB508951F93CF93DF9300D053
:1037F00000D0CDB7DEB7182F4C835B836A83798303
:103800000E94EA1B812F80640E94E21B7981872F2E
:103810000E94E21B6A81862F0E94E21B5B81852F3A
:103820000E94E21B4C81842F0E94E21B112321F095
:10383000183039F487E801C085E90E94E21B1AE0DC
:1038400004C08FEFFACF115021F00E94EA1B8F3F86
:10385000D1F30F900F900F900F90DF91CF911F91A8
:10386000089586B18295817091E08927089586B187
:1038700085FB882780F991E08927089580912302AC
:10388000811116C060912402709125028091260258
:103890009091270220E032E048E252E00E94E51DCC
:1038A000882321F081E080932302089580E0089529
:1038B00081E008952F923F924F925F926F927F9294
:1038C0008F929F92AF92BF92CF92DF92EF92FF9230
:1038D0000F931F93CF93DF9300D000D0CDB7DEB707
:1038E0004B015C018A017901212C82E0382EE11420
:1038F000F10409F473C0640181E0D8222401350188
:103900004C185D0861087108F101EC19FD09FC8390
:10391000EB83EE16FF0610F4FC82EB82809124020A
:1039200090912502A0912602B091270248165906CF
:103930006A067B06F1F10E943E1C882309F450C000
:103940002A98B301A20181E10E94F41B882311F09F
:103950002A9A46C00E94EA1B8E3FE1F728E232E035
:1039600029833A830E94EA1B29813A81F9018193D4
:103970009F01F4E028323F0799F7409224025092C9
:1039800025026092260270922702B601685D7D4F83
:103990004B815C81C8010E94F4238B819C81080FBC
:1039A000191F0E94EA1B0E94EA1B2A9A0E94EA1B26
:1039B0000CC0B601685D7D4F4B815C81C8010E94DF
:1039C000F423EB81FC810E0F1F1F8B819C81E81A71
:1039D000F90A880E991EA11CB11C89CF81E001C093
:1039E00080E00F900F900F900F90DF91CF911F917B
:1039F0000F91FF90EF90DF90CF90BF90AF909F908E
:103A00008F907F906F905F904F903F902F90089590
:103A10001F93CF93DF933C983D98239A259A229A3F
:103A200024982A9A83E58CBD8DB58E7F8DBD10922A
:103A300022020E94311C882309F46CC01AE00E9403
:103A4000EA1B1150E1F72A98C0E0D2E040E050E0D4
:103A5000BA0180E00E94F41B813021F02197209769
:103A6000A9F72CC040E050E0BA0187E30E94F41BA4
:103A700040E050E0BA0189E20E94F41B82FD05C0DB
:103A800080912202816080932202C0E0D0E8809180
:103A90002202837040E050E0BA0141F087E30E94C7
:103AA000F41B40E050E0BA0189E201C081E00E94CD
:103AB000F41B80FF05C02197209749F72A9A2BC055
:103AC00040E052E060E070E080E10E94F41B2A9A3E
:103AD000811120C08CB58C7F8CBD8DB581608DBD72
:103AE0008FEF9FEFDC018093240290932502A09337
:103AF0002602B093270281E08093230220E032E087
:103B000048E252E060E070E0CB010E945A1C11E0F4
:103B1000811101C010E0812FDF91CF911F91089595
:103B20002F923F924F925F926F927F928F929F92CD
:103B3000AF92BF92CF92DF92EF92FF920F931F93BB
:103B4000CF93DF932B013C015A01E9014701160194
:103B50004115510511F480E025C02097E1F30217CB
:103B60001307C8F3E114F104B1F36901E12CF12C5E
:103B70009E01A501C301B2010E945A1C882359F37A
:103B80009101B301A201C501F4010995882349F00F
:103B90004C0C5D1C6E1C7F1C0C1B1D0B0C171D0799
:103BA00038F781E0DF91CF911F910F91FF90EF9057
:103BB000DF90CF90BF90AF909F908F907F906F904D
:103BC0005F904F903F902F9008952F923F924F9289
:103BD0005F926F927F928F929F92AF92BF92CF929D
:103BE000DF92EF92FF920F931F93CF93DF936B01BE
:103BF0007C015A0189010E94371C81118BC0212C44
:103C000022E0322E0115110509F458C0460181E069
:103C10009822260137014818590861087108E10106
:103C2000C819D9090C171D0708F4E801809124026E
:103C300090912502A0912602B091270248165906BC
:103C40006A067B0601F10E943E1C882309F462C0CB
:103C50008114910469F4C115E2E0DE0749F4409251
:103C600024025092250260922602709227020BC015
:103C700020E032E048E252E0C301B2010E945A1C47
:103C80008111EDCF47C0F8E2AF16F2E0BF0651F464
:103C90002A98B301A20188E10E94F41B882381F0D5
:103CA0002A9A38C0AE01B501C401885D9D4F0E94BB
:103CB000F423109223020C171D0751F781E02BC04B
:103CC0008EEF0E94E21B98E2892E92E0992EF40179
:103CD00081914F010E94E21BF8E28F16F4E09F06EB
:103CE000B1F78FEF0E94E21B8FEF0E94E21B0E9450
:103CF000EA1B8F3FE1F70E94EA1B2A9AAC0EBD1E19
:103D0000CC0EDD1EE11CF11C0C1B1D0B81E0809311
:103D1000230278CF80E0DF91CF911F910F91FF9028
:103D2000EF90DF90CF90BF90AF909F908F907F905B
:103D30006F905F904F903F902F9008955F926F9299
:103D40007F928F929F92AF92BF92CF92DF92EF922B
:103D5000FF920F931F93CF93DF934B015C016A0196
:103D6000E90137014115510511F480E02DC001151D
:103D70001105D9F3552453942097E9F0512C1BC019
:103D80002097E1F09301B501A401C601F80109955E
:103D90007C01009799F0552099F09701A601C50183
:103DA000B4010E94E51D882301F38E0C9F1CA11C09
:103DB000B11CCE19DF09552019F3E4CF81E004C00E
:103DC000C817D90750F7D1CFDF91CF911F910F912D
:103DD000FF90EF90DF90CF90BF90AF909F908F902B
:103DE0007F906F905F900895AF92BF92CF92DF92D5
:103DF000EF92FF920F931F93CF93DF93EC01009705
:103E000099F00E94311C882379F089E1FE0111921A
:103E10008A95E9F72A9840E050E0BA018AE00E94CA
:103E2000F41B882319F02A9A80E0C5C00E94EA1B7F
:103E30008E3FE1F7DC2EEC2EFD2E00E610E00E9416
:103E4000EA1B4E2D4D1950E04F30510598F5FA01FF
:103E5000EC5CFF4F0C94792188832CC0F7018083A0
:103E600029C0F701818326C08A8724C090E0A0E0A2
:103E7000B0E0002E04C0880F991FAA1FBB1F0A9430
:103E8000D2F74B855C856D857E85482B592B6A2B37
:103E90007B2B4B875C876D877E870CC08295807FEC
:103EA0008F8708C0282F22952F709F85922B9F8780
:103EB0008F70888BFFEFEF1AFF0A08501109003D41
:103EC0002FEF120709F0BBCF40E050E0BA0189E0C4
:103ED0000E94F41B8111A7CF0E94EA1B8E3FE1F7DD
:103EE00010E0C12CD12C760100E0A12CBB24B394AE
:103EF0000E94EA1B112309F458C01E3071F486FD9C
:103F0000BD8A85FDBE8A84FDBF8A8C7090E0959540
:103F1000879595958795888F48C0173079F178F403
:103F2000153049F1163009F040C08370C82ED12CED
:103F3000E12CF12CFE2CED2CDC2CCC2436C01930DD
:103F400089F128F11A3089F5881F8827881F082BE6
:103F50008A2D90E0800F911D0296A701960104C062
:103F6000220F331F441F551F8A95D2F7298B3A8B96
:103F70004B8B5C8B1AC08F70A82E17C0C82A32E0FA
:103F8000CC0CDD1CEE1CFF1C3A95D1F70EC08295BF
:103F9000869586958370C82A3FEFC31AD30AE30A31
:103FA000F30A03C0082F0370000F1F5F123109F0DE
:103FB0009FCF2A9A81E0DF91CF911F910F91FF90BF
:103FC000EF90DF90CF90BF90AF9008951092C50012
:103FD00083E38093C40086E08093C20088E98093E5
:103FE000C1000895CF93C82F8A3019F48DE00E9444
:103FF000F21F8091C00085FFFCCFC093C600CF9117
:104000000895CF93C82F82958F708A3010F4805D09
:1040100001C0895A0E94F21F8C2F8F70282F30E028
:104020002A30310514F4805D01C0895ACF910C9477
:10403000F21FCF93C82F892F0E9401208C2FCF9180
:104040000C940120CF92DF92EF92FF926B017C01E2
:10405000C7010E941920C601FF90EF90DF90CF901A
:104060000C941920AF92BF92CF92DF92EF92FF9201
:104070000F931F93CF93DF931F92CDB7DEB77C01D1
:1040800005E010E020E080E1A82E87E2B82E9AE05B
:10409000C92ED12CC701B5010E942F21611106C084
:1040A000211104C081E0A816B10439F480E3860F21
:1040B00069830E94F21F21E069816A9DC0016B9DA6
:1040C000900D1124E81AF90AC501B6010E942F21AA
:1040D0005B010150110901151105E1F60F90DF9107
:1040E000CF911F910F91FF90EF90DF90CF90BF90F5
:1040F000AF9008952F923F924F925F926F927F926E
:104100008F929F92AF92BF92CF92DF92EF92FF92E7
:104110001F93CF93DF931F92CDB7DEB74B015C01A6
:104120002AE0222E312C10E0C12C3AECD32E3AE9B1
:10413000E32E3BE3F32E4AE0442E512C612C712CEC
:10414000C501B401A70196010E945721211108C0A1
:10415000111106C081E0C816D104E104F10439F45C
:1041600080E3820F29830E94F21F11E02981A22F90
:10417000B0E0A70196010E948E21861A970AA80A2C
:10418000B90AC701B601A30192010E945721690132
:104190007A01E1E02E1A31082114310489F60F90DA
:1041A000DF91CF911F91FF90EF90DF90CF90BF9064
:1041B000AF909F908F907F906F905F904F903F90C7
:1041C0002F900895CF93DF93EC018991882319F004
:1041D0000E94F21FFACFDF91CF910895CF93DF9322
:1041E000FC018491EF012196882321F00E94F21FA7
:1041F000FE01F7CFDF91CF9108959FB7789480911A
:10420000C00087FD08C083B7816083BF889583B7EE
:104210008E7F83BFF4CF9FBF8091C6008D3009F49D
:104220008AE008951895DB018F939F930E948E2159
:10423000BF91AF91A29F800D911DA39F900DB29F42
:10424000900D11240895991B79E004C0991F9617C9
:1042500008F0961B881F7A95C9F780950895AA1BC8
:10426000BB1B51E107C0AA1FBB1FA617B70710F061
:10427000A61BB70B881F991F5A95A9F78095909593
:10428000BC01CD01089597FB072E16F4009407D0CA
:1042900077FD09D00E942F2107FC05D03EF49095B0
:1042A00081959F4F0895709561957F4F0895A1E284
:1042B0001A2EAA1BBB1BFD010DC0AA1FBB1FEE1FA0
:1042C000FF1FA217B307E407F50720F0A21BB30BEB
:1042D000E40BF50B661F771F881F991F1A9469F767
:1042E00060957095809590959B01AC01BD01CF01C3
:1042F0000895EE0FFF1F0590F491E02D0994A29F01
:10430000B001B39FC001A39F700D811D1124911DA9
:10431000B29F700D811D1124911D08950E947F216F
:10432000A59F900DB49F900DA49F800D911D112409
:10433000089570D088F09F5790F0B92F9927B75102
:10434000A0F0D1F0660F771F881F991F1AF0BA9559
:10435000C9F712C0B13081F077D0B1E0089574C0D0
:10436000672F782F8827B85F39F0B93FCCF386954F
:1043700077956795B395D9F73EF4909580957095AC
:1043800061957F4F8F4F9F4F0895E89409C097FB29
:104390003EF490958095709561957F4F8F4F9F4F1C
:1043A0009923A9F0F92F96E9BB279395F695879560
:1043B00077956795B795F111F8CFFAF4BB0F11F423
:1043C00060FF1BC06F5F7F4F8F4F9F4F16C08823CA
:1043D00011F096E911C0772321F09EE8872F762F00
:1043E00005C0662371F096E8862F70E060E02AF041
:1043F0009A95660F771F881FDAF7880F969587952D
:1044000097F9089557FD9058440F551F59F05F3F95
:1044100071F04795880F97FB991F61F09F3F79F0E6
:1044200087950895121613061406551FF2CF469568
:10443000F1DF08C0161617061806991FF1CF8695EA
:104440007105610508940895E894BB2766277727CE
:10445000CB0197F908950BD078C069D028F06ED0C1
:1044600018F0952309F05AC05FC01124EECFCADFBF
:10447000A0F3959FD1F3950F50E0551F629FF00177
:10448000729FBB27F00DB11D639FAA27F00DB11DD0
:10449000AA1F649F6627B00DA11D661F829F222759
:1044A000B00DA11D621F739FB00DA11D621F839FE0
:1044B000A00D611D221F749F3327A00D611D231FB6
:1044C000849F600D211D822F762F6A2F11249F5704
:1044D00050408AF0E1F088234AF0EE0FFF1FBB1F27
:1044E000661F771F881F91505040A9F79E3F5105C6
:1044F00070F014C0AACF5F3FECF3983EDCF38695D2
:1045000077956795B795F795E7959F5FC1F7FE2B70
:10451000880F911D9695879597F9089597F99F674C
:1045200080E870E060E008959FEF80EC089500243B
:104530000A941616170618060906089500240A9408
:1045400012161306140605060895092E0394000C8E
:1045500011F4882352F0BB0F40F4BF2B11F460FF1D
:1045600004C06F5F7F4F8F4F9F4F0895CF93DF93AE
:104570008230910510F482E090E0E0913C04F091EB
:104580003D0420E030E0A0E0B0E0309739F1408118
:10459000518148175907B8F04817590771F48281BB
:1045A0009381109729F013969C938E9312972CC0A9
:1045B00090933D0480933C0427C02115310531F0D0
:1045C0004217530718F0A901DB0101C0EF019A015E
:1045D000BD01DF010280F381E02DD7CF2115310528
:1045E000F9F0281B390B2430310580F48A819B8136
:1045F0006115710521F0FB019383828304C09093C0
:104600003D0480933C04FE01329644C0FE01E20F5B
:10461000F31F8193919322503109398328833AC043
:1046200020913A0430913B04232B41F42091020164
:104630003091030130933B0420933A042091000110
:10464000309101012115310541F42DB73EB740915C
:10465000040150910501241B350BE0913A04F091BF
:104660003B04E217F307A0F42E1B3F0B2817390772
:1046700078F0AC014E5F5F4F2417350748F04E0FBE
:104680005F1F50933B0440933A048193919302C07F
:10469000E0E0F0E0CF01DF91CF910895CF93DF9379
:1046A000009709F487C0FC01329713821282C091EF
:1046B0003C04D0913D04209781F420813181280F62
:1046C000391F80913A0490913B048217930779F542
:1046D000F0933B04E0933A046DC0DE0120E030E04B
:1046E000AE17BF0750F412964D915C9113979D0140
:1046F0004115510509F1DA01F3CFB383A28340815B
:104700005181840F951F8A179B0771F48D919C919D
:104710001197840F951F02969183808312968D9135
:104720009C911397938382832115310529F4F0938B
:104730003D04E0933C043EC0D9011396FC93EE93F4
:1047400012974D915D91A40FB51FEA17FB0779F4FD
:1047500080819181840F951F0296D90111969C93B7
:104760008E938281938113969C938E931297E0E0AF
:10477000F0E08A819B81009719F0FE01EC01F9CFEE
:10478000CE01029628813981820F931F20913A042D
:1047900030913B042817390769F4309729F41092B7
:1047A0003D0410923C0402C013821282D0933B0459
:1047B000C0933A04DF91CF910895FB01DC018D9104
:1047C000059080190110D9F3990B0895FB01DC01C4
:1047D0004150504030F08D910590801919F400201F
:1047E000B9F7881B990B0895FB01DC0102C0019009
:1047F0000D9241505040D8F70895DC0101C06D93EF
:1048000041505040E0F70895FC018191861721F056
:104810008823D9F7992708953197CF010895FB018F
:10482000DC018D91019080190110D9F3990B089545
:10483000FB01DC014150504030F08D910190801916
:1048400019F40020B9F7881B990B0895FB01DC01CE
:104850004150504048F001900D920020C9F701C02E
:104860001D9241505040E0F70895FC0181E090E036
:104870000190061609F4CF010020D1F701970895A1
:10488000AEE0B0E0E6E4F4E20C94E8260D891E897F
:1048900086E08C831A8309838FEF9FE79E838D8345
:1048A000AE01475E5F4F6F89788DCE0101960E9401
:1048B0006224EF81F885E00FF11F10822E96E4E06C
:1048C0000C940427ACE0B0E0E8E6F4E20C94DA26BD
:1048D0007C016B018A01FC0117821682838181FFB2
:1048E000BDC1CE0101964C01F7019381F60193FD04
:1048F000859193FF81916F01882309F4ABC18532C3
:1049000039F493FD859193FF81916F01853229F4EC
:10491000B70190E00E944A26E7CF512C312C20E0CD
:104920002032A0F48B3269F030F4803259F08332B7
:1049300069F420612CC08D3239F0803339F4216064
:1049400026C02260246023C0286021C027FD27C024
:1049500030ED380F3A3078F426FF06C0FAE05F9E5B
:10496000300D1124532E13C08AE0389E300D1124CF
:10497000332E20620CC08E3221F426FD6BC12064E0
:1049800006C08C3611F4206802C0883641F4F60166
:1049900093FD859193FF81916F018111C1CF982F74
:1049A0009F7D9554933028F40C5F1F4FFFE3F983EC
:1049B0000DC0833631F0833771F0833509F05BC069
:1049C00022C0F801808189830E5F1F4F44244394E5
:1049D000512C540115C03801F2E06F0E711CF80122
:1049E000A080B18026FF03C0652D70E002C06FEF8C
:1049F0007FEFC5012C870E943F262C0183012C8567
:104A00002F77222E17C03801F2E06F0E711CF801CB
:104A1000A080B18026FF03C0652D70E002C06FEF5B
:104A20007FEFC5012C870E9434262C012C8520683D
:104A3000222E830123FC1BC0832D90E048165906CB
:104A4000B0F4B70180E290E00E944A263A94F4CF95
:104A5000F50127FC859127FE81915F01B70190E068
:104A60000E944A2631103A94F1E04F1A510841143D
:104A7000510471F7E5C0843611F0893639F5F80133
:104A800027FF07C060817181828193810C5F1F4F76
:104A900008C060817181882777FD8095982F0E5F0F
:104AA0001F4F2F76B22E97FF09C090958095709575
:104AB00061957F4F8F4F9F4F2068B22E2AE030E0E4
:104AC000A4010E947C26A82EA81844C0853729F48A
:104AD0002F7EB22E2AE030E025C0F22FF97FBF2EC4
:104AE0008F36C1F018F4883579F0B4C0803719F0EA
:104AF000883721F0AFC02F2F2061B22EB4FE0DC039
:104B00008B2D8460B82E09C024FF0AC09F2F9660A9
:104B1000B92E06C028E030E005C020E130E002C038
:104B200020E132E0F801B7FE07C060817181828127
:104B300093810C5F1F4F06C06081718180E090E01F
:104B40000E5F1F4FA4010E947C26A82EA818FB2DE3
:104B5000FF77BF2EB6FE0BC02B2D2E7FA51450F471
:104B6000B4FE0AC0B2FC08C02B2D2E7E05C07A2CE4
:104B70002B2D03C07A2C01C0752C24FF0DC0FE0123
:104B8000EA0DF11D8081803311F4297E09C022FFD6
:104B900006C07394739404C0822F867809F07394CE
:104BA00023FD13C020FF06C05A2C731418F4530CB5
:104BB0005718732C731468F4B70180E290E02C87C7
:104BC0000E944A2673942C85F5CF731410F437187D
:104BD00001C0312C24FF12C0B70180E390E02C8784
:104BE0000E944A262C8522FF17C021FF03C088E5BA
:104BF00090E002C088E790E0B7010CC0822F867871
:104C000059F021FD02C080E201C08BE227FD8DE258
:104C1000B70190E00E944A26A51438F4B70180E35A
:104C200090E00E944A265A94F7CFAA94F401EA0D24
:104C3000F11D8081B70190E00E944A26A110F5CFB6
:104C4000332009F451CEB70180E290E00E944A2659
:104C50003A94F6CFF7018681978102C08FEF9FEFDC
:104C60002C96E2E10C94F626FC0105906150704010
:104C70000110D8F7809590958E0F9F1F0895FC0125
:104C80006150704001900110D8F7809590958E0F7B
:104C90009F1F08950F931F93CF93DF93182F092F12
:104CA000EB018B8181FD03C08FEF9FEF20C082FF5E
:104CB00010C04E815F812C813D81421753077CF4E7
:104CC000E881F9819F012F5F3F4F3983288310834B
:104CD00006C0E885F985812F0995892B29F72E8152
:104CE0003F812F5F3F4F3F832E83812F902FDF9196
:104CF000CF911F910F910895FA01AA27283051F101
:104D0000203181F1E8946F936E7F6E5F7F4F8F4FFC
:104D10009F4FAF4FB1E03ED0B4E03CD0670F781F5B
:104D2000891F9A1FA11D680F791F8A1F911DA11D40
:104D30006A0F711D811D911DA11D20D009F4689479
:104D40003F912AE0269F11243019305D3193DEF621
:104D5000CF010895462F4770405D4193B3E00FD0D7
:104D6000C9F7F6CF462F4F70405D4A3318F0495DC2
:104D700031FD4052419302D0A9F7EACFB4E0A695A5
:104D80009795879577956795BA95C9F700976105C7
:104D9000710508959B01AC010A2E0694579547951D
:104DA00037952795BA95C9F7620F731F841F951F12
:104DB000A01D08952F923F924F925F926F927F9223
:104DC0008F929F92AF92BF92CF92DF92EF92FF921B
:104DD0000F931F93CF93DF93CDB7DEB7CA1BDB0BC7
:104DE0000FB6F894DEBF0FBECDBF09942A8839886C
:104DF00048885F846E847D848C849B84AA84B98473
:104E0000C884DF80EE80FD800C811B81AA81B9817E
:104E1000CE0FD11D0FB6F894DEBF0FBECDBFED0192
:064E20000895F894FFCF95
:104E260000003E042000080C0A090A0C08000206CD
:104E36000A120A06020001030507090E10121416CB
:104E4600181C1E2057796B6F6E616C6920005069C3
:104E56006F747242204B6F726469616E5A005465BA
:104E66006D70657261747572613D25642E256400EE
:104E7600437A61733D25753A25753A2575002F00ED
:00000001FF
